{"abi":[{"type":"constructor","inputs":[{"name":"initialAccountToken","type":"address","internalType":"address"},{"name":"initialTranchedPool","type":"address","internalType":"address"},{"name":"initialPermissionsRegistry","type":"address","internalType":"address"}],"stateMutability":"nonpayable"},{"type":"function","name":"ADMIN_ROLE","inputs":[],"outputs":[{"name":"","type":"bytes32","internalType":"bytes32"}],"stateMutability":"view"},{"type":"function","name":"FUNDS_MANAGER_ROLE","inputs":[],"outputs":[{"name":"","type":"bytes32","internalType":"bytes32"}],"stateMutability":"view"},{"type":"function","name":"OPS_ROLE","inputs":[],"outputs":[{"name":"","type":"bytes32","internalType":"bytes32"}],"stateMutability":"view"},{"type":"function","name":"acceptAccountAdmin","inputs":[],"outputs":[],"stateMutability":"nonpayable"},{"type":"function","name":"accountAdmin","inputs":[],"outputs":[{"name":"","type":"address","internalType":"address"}],"stateMutability":"view"},{"type":"function","name":"accountToken","inputs":[],"outputs":[{"name":"","type":"address","internalType":"contract IERC20"}],"stateMutability":"view"},{"type":"function","name":"approvedOperationalSelectors","inputs":[{"name":"","type":"bytes32","internalType":"bytes32"},{"name":"","type":"address","internalType":"address"},{"name":"","type":"bytes4","internalType":"bytes4"}],"outputs":[{"name":"","type":"bool","internalType":"bool"}],"stateMutability":"view"},{"type":"function","name":"approvedRoleAddresses","inputs":[{"name":"","type":"bytes32","internalType":"bytes32"},{"name":"","type":"address","internalType":"address"}],"outputs":[{"name":"","type":"bool","internalType":"bool"}],"stateMutability":"view"},{"type":"function","name":"bufferBalance","inputs":[],"outputs":[{"name":"","type":"uint128","internalType":"uint128"}],"stateMutability":"view"},{"type":"function","name":"callConfigFunction","inputs":[{"name":"to","type":"address","internalType":"address"},{"name":"_calldata","type":"bytes","internalType":"bytes"}],"outputs":[],"stateMutability":"nonpayable"},{"type":"function","name":"claimOffChainAmount","inputs":[{"name":"amount","type":"uint128","internalType":"uint128"}],"outputs":[],"stateMutability":"nonpayable"},{"type":"function","name":"getAvailableBalance","inputs":[],"outputs":[{"name":"availableBalance","type":"uint128","internalType":"uint128"}],"stateMutability":"view"},{"type":"function","name":"isValidSignature","inputs":[{"name":"hash","type":"bytes32","internalType":"bytes32"},{"name":"signature","type":"bytes","internalType":"bytes"}],"outputs":[{"name":"returnValue","type":"bytes4","internalType":"bytes4"}],"stateMutability":"view"},{"type":"function","name":"offChainPendingBalance","inputs":[],"outputs":[{"name":"","type":"uint128","internalType":"uint128"}],"stateMutability":"view"},{"type":"function","name":"permissionsRegistry","inputs":[],"outputs":[{"name":"","type":"address","internalType":"contract IPermissionsRegistry"}],"stateMutability":"view"},{"type":"function","name":"proposeNewAccountAdmin","inputs":[{"name":"newAccountAdmin","type":"address","internalType":"address"}],"outputs":[],"stateMutability":"nonpayable"},{"type":"function","name":"proposedAccountAdmin","inputs":[],"outputs":[{"name":"","type":"address","internalType":"address"}],"stateMutability":"view"},{"type":"function","name":"runWaterfall","inputs":[{"name":"waterfallConfiguration","type":"tuple[]","internalType":"struct WaterfallStepConfig[]","components":[{"name":"stepType","type":"bytes32","internalType":"bytes32"},{"name":"executionConfig","type":"bytes","internalType":"bytes"}]},{"name":"waterfallToRun","type":"tuple[][]","internalType":"struct WaterfallStep[][]","components":[{"name":"stepType","type":"bytes32","internalType":"bytes32"},{"name":"executionData","type":"bytes","internalType":"bytes"}]}],"outputs":[],"stateMutability":"nonpayable"},{"type":"function","name":"setBufferBalance","inputs":[{"name":"newBufferBalance","type":"uint128","internalType":"uint128"}],"outputs":[],"stateMutability":"nonpayable"},{"type":"function","name":"setOffChainPendingBalance","inputs":[{"name":"newOffChainPendingBalance","type":"uint256","internalType":"uint256"}],"outputs":[],"stateMutability":"nonpayable"},{"type":"function","name":"setPermissionsRegistry","inputs":[{"name":"newPermissionsRegistry","type":"address","internalType":"address"}],"outputs":[],"stateMutability":"nonpayable"},{"type":"function","name":"tranchedPool","inputs":[],"outputs":[{"name":"","type":"address","internalType":"contract ITranchedPool"}],"stateMutability":"view"},{"type":"function","name":"updateRoleAddressStatus","inputs":[{"name":"role","type":"bytes32","internalType":"bytes32"},{"name":"addressToUpdate","type":"address","internalType":"address"},{"name":"newStatus","type":"bool","internalType":"bool"}],"outputs":[],"stateMutability":"nonpayable"},{"type":"function","name":"updateSelectorApproval","inputs":[{"name":"role","type":"bytes32","internalType":"bytes32"},{"name":"addressApproved","type":"address","internalType":"address"},{"name":"selectorToUpdate","type":"bytes4","internalType":"bytes4"},{"name":"newStatus","type":"bool","internalType":"bool"}],"outputs":[],"stateMutability":"nonpayable"},{"type":"function","name":"updateWaterfallConfig","inputs":[{"name":"newWaterfallConfiguration","type":"tuple[]","internalType":"struct WaterfallStepConfig[]","components":[{"name":"stepType","type":"bytes32","internalType":"bytes32"},{"name":"executionConfig","type":"bytes","internalType":"bytes"}]}],"outputs":[],"stateMutability":"nonpayable"},{"type":"function","name":"waterfallConfigurationHash","inputs":[],"outputs":[{"name":"","type":"bytes32","internalType":"bytes32"}],"stateMutability":"view"},{"type":"event","name":"Buffer","inputs":[{"name":"amount","type":"uint128","indexed":false,"internalType":"uint128"}],"anonymous":false},{"type":"event","name":"OffchainPayment","inputs":[{"name":"amount","type":"uint128","indexed":false,"internalType":"uint128"}],"anonymous":false},{"type":"event","name":"OnchainPayment","inputs":[{"name":"receiver","type":"address","indexed":true,"internalType":"address"},{"name":"amount","type":"uint128","indexed":false,"internalType":"uint128"}],"anonymous":false},{"type":"error","name":"SafeERC20FailedDecreaseAllowance","inputs":[{"name":"spender","type":"address","internalType":"address"},{"name":"currentAllowance","type":"uint256","internalType":"uint256"},{"name":"requestedDecrease","type":"uint256","internalType":"uint256"}]},{"type":"error","name":"SafeERC20FailedOperation","inputs":[{"name":"token","type":"address","internalType":"address"}]}],"bytecode":{"object":"0x60c034620000fb57601f620030df38819003918201601f19168301916001600160401b03831184841017620000ff57808492606094604052833981010312620000fb576200004d8162000113565b906200006a6040620000626020840162000113565b920162000113565b6001600160a01b03928316608052600180546001600160a01b03199081163317909155600580549091169184169190911790551660a052604051612fb690816200012982396080518181816105f50152818161121f01528181611646015261251d015260a051818181610903015281816116c50152818161199801528181611a4e01528181611ae30152611b7f0152f35b5f80fd5b634e487b7160e01b5f52604160045260245ffd5b51906001600160a01b0382168203620000fb5756fe604060808152600480361015610013575f80fd5b5f91823560e01c9081630c93d71214610c505781630f3ba02314610c2857816311b4d56614610a125781631298f13c146109e95781631626ba7e146109975781631c7ef7f9146109325781631d470c70146108ee5781631e6b129b146108c5578163313ad9851461084257816333832a6a146107f957816334abd246146107d057816334adc3f4146107815781633df8504b146107585781634bc853c7146106ee5781634eed31c6146106a65781634fd0faeb14610643578163572bbc01146106245781635aacdc99146105e057816375b238fc146105a5578163809dab6a146105775781639c5fe7a81461054f578163c4707a8314610527578163c728b5ac1461026c578163d8e13fcd146101e757508063e5993b80146101ac5763f32469b41461013d575f80fd5b346101a85760203660031901126101a85780356001600160401b0381116101a457366023820112156101a45761019e9181602461017f93369301359101610e1f565b61019961018b33610f4f565b610193610ebc565b90610f1f565b612ec2565b60065580f35b8280fd5b5080fd5b50346101a85760203660031901126101a8576101ca61018b33610f4f565b81546001600160801b03191690356001600160801b031617815580f35b9050346101a45760803660031901126101a457610202610dc5565b9061020b610df1565b606435928315158403610268576102659461022861018b33610f4f565b803587526020528286209060018060a01b031686526020528185209063ffffffff60e01b16855260205283209060ff801983541691151516179055565b80f35b8580fd5b9050346101a457806003193601126101a457610286610ddb565b6024919082356001600160401b038082116105235736602383011215610523578186013590811161052357848201913686838301011161051f576102d46102cb611014565b88841015610f1f565b811561050d5782356001600160f81b0319169060018311156104fb57602581013560081c60ff60f01b1660028411156104e957602682013560101c60ff60e81b169160038511156104d757928a9694919287969361036995602760ff60e01b91013560181c1661034333610f4f565b92831561047f575b83156103e5575b5050506103629150610193610ebc565b3691610d71565b9082602083519301915af13d156103e0573d61038481610d56565b9061039184519283610d33565b81528560203d92013e5b156103a4578380f35b606492916020601792519362461bcd60e51b855284015282015276115e1958dd5d1948199d5b98dd1a5bdb8819985a5b1959604a1b6044820152fd5b61039b565b909192505f80516020612f4183398151915292838a5260036020528b8a20338b5260205260ff8c8b20541693841561046a575b8461042f575b5050505061036291505f8080610352565b909192935089528c6020528a892060018060a01b0389168a526020528a892093171717865260205261036260ff88872054165f80808061041e565b6001546001600160a01b031633149450610418565b925061048a33610fa0565b80610496575b9261034b565b505f80516020612f61833981519152895260208d81528b8a206001600160a01b038a168b5281528b8a20858417851783178b5290528a89205460ff16610490565b634e487b7160e01b8b5260328a52888bfd5b634e487b7160e01b8a5260328952878afd5b634e487b7160e01b8952603288528689fd5b634e487b7160e01b8852603287528588fd5b8780fd5b8680fd5b8390346101a857816003193601126101a857602090515f80516020612f418339815191528152f35b8390346101a857816003193601126101a857905490516001600160801b039091168152602090f35b8390346101a857816003193601126101a857602090610594611204565b90516001600160801b039091168152f35b8390346101a857816003193601126101a857602090517fa49807205ce4d355092ef5a8a18f56e8913cf4a201fbe287825b095693c217758152f35b8390346101a857816003193601126101a857517f00000000000000000000000000000000000000000000000000000000000000006001600160a01b03168152602090f35b8390346101a857816003193601126101a8576020906006549051908152f35b919050346101a45760603660031901126101a4578160209360ff92610666610dc5565b61066e610df1565b823584529187528383206001600160a01b03909116835286528282206001600160e01b03199091168252855220549151911615158152f35b919050346101a457816003193601126101a4578160209360ff926106c8610dc5565b90358252600386528282206001600160a01b039091168252855220549151911615158152f35b8390346101a85760203660031901126101a85761074161070c610ddb565b61071861018b33610f4f565b60018060a01b0316915161072b81610ccd565b60018152601960f91b6020820152821515610f1f565b600280546001600160a01b03191691909117905580f35b8390346101a857816003193601126101a85760055490516001600160a01b039091168152602090f35b83346107cd57806003193601126107cd576002546107b16107a0610ebc565b336001600160a01b03841614610f1f565b600180546001600160a01b031990811633179091551660025580f35b80fd5b8390346101a857816003193601126101a85760015490516001600160a01b039091168152602090f35b83346107cd5760203660031901126107cd57610813610ddb565b61081f61018b33610f4f565b600580546001600160a01b0319166001600160a01b039290921691909117905580f35b919050346101a45760203660031901126101a4576001600160801b03903581811692908381036108c1576108ad9161087c61018b33610fa0565b6108a88654958587168093519161089283610ccd565b6002835261323160f01b60208401521115610f1f565b610fe7565b6001600160801b0319909216911617815580f35b8480fd5b8390346101a857816003193601126101a85760025490516001600160a01b039091168152602090f35b8390346101a857816003193601126101a857517f00000000000000000000000000000000000000000000000000000000000000006001600160a01b03168152602090f35b9050346101a45760603660031901126101a45761094d610dc5565b906044359182151583036108c1576102659361096b61018b33610f4f565b35855260036020528185209060018060a01b0316855260205283209060ff801983541691151516179055565b905082346107cd57816003193601126107cd57602435906001600160401b0382116107cd57506020926109d06109d79236908301610da7565b903561103f565b90516001600160e01b03199091168152f35b8390346101a857816003193601126101a85760075490516001600160801b039091168152602090f35b919050346101a457816003193601126101a4576001600160401b039181358381116108c157610a449036908401610c99565b9190926024359085821161052357610a6191959395369101610c99565b92610a6e61018b33610fa0565b825192610a7a84610ccd565b60018452610a95602094600d60fa1b86820152888714610f1f565b610ac9610aa6610199368a8a610e1f565b60065414825190610ab682610ccd565b60028252610c4d60f21b87830152610f1f565b610ad1611204565b96610ada6112da565b50885b868110610ae8578980f35b601e1991600582811b870135368890038501811215610c2057870190813591878311610c245789839101911b36038113610c2057610b27913691610e1f565b998b610b3484848d611301565b359981925b8d51841015610c04578b90610b6b8f8f8890610b66610b598a8d95611337565b5196875114610193611014565b611301565b8c8101359089813603018212156102685701918235928b8411610268578d018336038113610268578d610bf893610bf2928d601f88610bfe99610bc98451998a9760018060801b03168989015260608096890152608088019061134b565b94831994858888030190880152818652878601378b868286010152011601038084520182610d33565b8d611368565b936112f3565b92610b39565b9895509b5050509650610c16906112f3565b9795909397610add565b8c80fd5b8d80fd5b8390346101a857816003193601126101a857602090515f80516020612f618339815191528152f35b5050346101a85760203660031901126101a857356001600160801b038116908190036101a857610c8261018b33610f4f565b600780546001600160801b03191691909117905580f35b9181601f84011215610cc9578235916001600160401b038311610cc9576020808501948460051b010111610cc957565b5f80fd5b604081019081106001600160401b03821117610ce857604052565b634e487b7160e01b5f52604160045260245ffd5b61012081019081106001600160401b03821117610ce857604052565b608081019081106001600160401b03821117610ce857604052565b601f909101601f19168101906001600160401b03821190821017610ce857604052565b6001600160401b038111610ce857601f01601f191660200190565b929192610d7d82610d56565b91610d8b6040519384610d33565b829481845281830111610cc9578281602093845f960137010152565b9080601f83011215610cc957816020610dc293359101610d71565b90565b602435906001600160a01b0382168203610cc957565b600435906001600160a01b0382168203610cc957565b604435906001600160e01b031982168203610cc957565b6001600160401b038111610ce85760051b60200190565b90929192610e2c81610e08565b91604091610e3c83519485610d33565b839581855260208095019160051b830193818511610cc95783925b858410610e675750505050505050565b6001600160401b03908435828111610cc9578601908382860312610cc9578351610e9081610ccd565b8235815289830135938411610cc957610ead868b95869501610da7565b83820152815201930192610e57565b60405190610ec982610ccd565b60018252603560f81b6020830152565b5f5b838110610eea5750505f910152565b8181015183820152602001610edb565b90602091610f1381518092818552858086019101610ed9565b601f01601f1916010190565b15610f275750565b60405162461bcd60e51b815260206004820152908190610f4b906024830190610efa565b0390fd5b6001600160a01b039081165f8181527fa665d3385c074a5fa4bcec2a570c94dbdb08d6b09bca4e08f8c3951c94a3d998602052604090205460ff16918215610f9657505090565b6001541614919050565b6001600160a01b039081165f8181527f80d356b715435c939ec5e2d86f8b562665d414e34e6d34252ab12346da0ff9de602052604090205460ff16918215610f9657505090565b6001600160801b03918216908216039190821161100057565b634e487b7160e01b5f52601160045260245ffd5b6040519061102182610ccd565b6002825261323560f01b6020830152565b51908115158203610cc957565b600554604051633441b80160e21b815230600482015260248101839052606060448201529192919060209082906001600160a01b031681806110846064820188610efa565b03915afa9081156110ed575f916110b4575b50156110a557610dc29161110c565b506001600160e01b0319919050565b906020823d82116110e5575b816110cd60209383610d33565b810103126107cd57506110df90611032565b5f611096565b3d91506110c0565b6040513d5f823e3d90fd5b51906001600160a01b0382168203610cc957565b61113b91604051916397aba7f960e01b8352600483015260406024830152818060209485936044830190610efa565b038173__$ba1615e65aace131a136fe2ca5d0e0d2d0$__5af49081156110ed575f916111c2575b506001600160a01b03168015159182611194575b50501561118857630b135d3f60e11b90565b6001600160e01b031990565b9091505f80516020612f418339815191525f526003815260405f20915f525260ff60405f2054165f80611176565b908282813d83116111f0575b6111d88183610d33565b810103126107cd57506111ea906110f8565b5f611162565b503d6111ce565b9190820391821161100057565b6040516370a0823160e01b81523060048201526020816024817f00000000000000000000000000000000000000000000000000000000000000006001600160a01b03165afa9081156110ed575f916112a9575b506007546001600160801b039161127f9161127591908416906111f7565b825f5416906111f7565b6112a560405161128e81610ccd565b60018152603760f81b602082015283831115610f1f565b1690565b906020823d82116112d2575b816112c260209383610d33565b810103126107cd5750515f611257565b3d91506112b5565b604051906112e782610ccd565b60606020835f81520152565b5f1981146110005760010190565b91908110156113235760051b81013590603e1981360301821215610cc9570190565b634e487b7160e01b5f52603260045260245ffd5b80518210156113235760209160051b010190565b9060406020610dc293805184520151918160208201520190610efa565b90763a3930b731b432a830bcb6b2b73a22bc32b1baba34b7b760491b82146113ba57723837b7b62137b93937bba2bc32b1baba34b7b760691b82146113b057610dc2916121f5565b610dc2915061149c565b610dc291506117ef565b51906001600160801b0382168203610cc957565b606060206101809260018060a01b0380825116865280838301511683870152604082015181815116604088015260018060801b0393849101511684870152838201511660808601526080810151151560a086015260a0810151151560c086015260c0810151151560e08601528160e082015116906101009182870152015190808251166101208601528060208301511661014086015260408201511661016085015201511515910152565b6001600160801b03918216908216019190821161100057565b906114a56112da565b506114ba602092838082518301019101612cbc565b90815182018583820312610cc957828601516001600160401b0393848211610cc957876114ed9281809501920101612d3b565b9101519485518601608087838301920312610cc95761150d8288016113c4565b9260409485890151818111610cc95789019183603f84011215610cc957848301519561153887610e08565b9261154589519485610d33565b87845286840194858a6101a0809b0283010191888311610cc957898c8c9201925b8484106117d757505050505060608c0151908111610cc9578b0185603f82011215610cc957868101519561159987610e08565b916115a68b519384610d33565b878352888301908b829960051b820101928311610cc9578b01905b8282106117c0575050506080969798999a9b6115e660018060a01b03988992016110f8565b16946001600160801b0392831680156117b157999291889694918a9960059997995416948d519c8d9a638e27c10560e01b8c5260e48c019160048d015260e060248d0152518091526101048b0192915f905b82821061177d5750505050877f00000000000000000000000000000000000000000000000000000000000000001660448a015260031990818a82030160648b01528a80855192838152019401905f5b818110611764575050508883030160848901525180825290880194915f905b828210611746575050505084925f92849260a484015260c483015203927f0000000000000000000000000000000000000000000000000000000000000000165af192831561173d57505f92611701575b5050610dc291611483565b81819392933d8311611736575b6117188183610d33565b810103126107cd57509061172e610dc2926113c4565b90915f6116f6565b503d61170e565b513d5f823e3d90fd5b8351811687528a998c995096870196909301926001909101906116a6565b825186528d9c8f9c509586019590920191600101611687565b6001929597989a9c508461179985989b9d9f93968396516113d8565b0195019201928d9a989695938d9c9a98959392611638565b50505050505050505050505090565b8980916117cc846113c4565b8152019101906115c1565b6117e18b85612d99565b815201910190898b91611566565b6118805f9160405161180081610cfc565b83815283602082015260405161181581610ccd565b84815284602082015260408201528360608201528360808201528360a08201528360c08201528360e08201526101006040519161185183610d18565b85835285602084015285604084015285606084015201526118706112da565b5060208082518301019101612cbc565b92918351840193606081860312611ed2576020810151604082015190956001600160401b0382116102685760606118c360209384806118ca950191870101612d3b565b9301611032565b9301519485518601956101c0818803126102685780604060206118f1816118fa95016113c4565b99019101612d99565b6001600160801b03841615611ec857604051926001600160401b03610160850190811190851117611eb45761016084016040528684528660208501528660408501528660608501528660808501528660a08501528660c08501528660e085015286610100850152866101208501528661014085015260405190630f24e0a960e41b825283600483015261199060248301846113d8565b87826101c4817f00000000000000000000000000000000000000000000000000000000000000006001600160a01b03165afa8015611ea957888991611bfb575b6119e493508a8810888c18028b188761273a565b966001600160801b0316611a26575b505090611a02611a089261268b565b90610fe7565b9281611a1d575b50611a18575090565b905090565b9050155f611a0f565b604081015151611a7c906001600160a01b03166001600160801b03611a4a8661268b565b16907f00000000000000000000000000000000000000000000000000000000000000006001600160a01b031690611ef0565b8251602084015160408501516060860151608087015160a088015160c089015160e08a01516101008b01516101208c01516101408d01516001600160801b039081169b9181169a9281169993811698948116979581169681169581169481169381169216907f00000000000000000000000000000000000000000000000000000000000000006001600160a01b03163b15611bf6576040516312abd5cf60e31b8152600481019d909d52611b349060248e01906113d8565b6101c48c01526101e48b01526102048a01526102248901526102448801526102648701526102848601526102a48501526102c48401526102e4830152610304820152848161032481837f00000000000000000000000000000000000000000000000000000000000000006001600160a01b03165af18015611beb57611bba575b806119f3565b9093906001600160401b038111611bd75760405292611a02611bb4565b634e487b7160e01b82526041600452602482fd5b6040513d87823e3d90fd5b508f80fd5b5050903d8089833e611c0d8183610d33565b81818101036101c08112611ea55761014090611c28846113c4565b50601f190112611ea157604051906001600160401b03610140830190811190831117611e8d576101408201604052611c62602084016113c4565b8252611c70604084016113c4565b6020830152611c81606084016113c4565b6040830152611c92608084016113c4565b6060830152611ca360a084016113c4565b6080830152611cb460c084016113c4565b60a0830152611cc560e084016113c4565b60c0830152611cd761010084016113c4565b60e0830152611ce961012084016113c4565b610100830152611cfc61014084016113c4565b610120830152611d0f61016084016113c4565b92611d1d61018082016113c4565b506101a0810151916001600160401b038311611e895760808383018284010312611e895760405191611d4e83610d18565b611d598482016113c4565b8352611d696020858301016113c4565b6020840152611d7c6040858301016113c4565b604084015280840160600151916001600160401b038311610c2457808201601f8487850101011215610c245782858301015191611db883610e08565b95611dc66040519788610d33565b838752602087019483830160208660071b8385870101010111611bf6576020818385010101955b60208660071b838587010101018710611e1857505050505050509060606119e49594939201526119d0565b6080878686010312611e83579060806020809493604051611e3881610d18565b611e418b6113c4565b8152611e4e838c016113c4565b83820152611e5e60408c01611032565b6040820152611e6f60608c01611032565b606082015281520197019690919250611ded565b50508f80fd5b8b80fd5b634e487b7160e01b8a52604160045260248afd5b8880fd5b8980fd5b6040513d8a823e3d90fd5b634e487b7160e01b87526041600452602487fd5b5050505050905090565b8380fd5b6001600160a01b0391821681529116602082015260400190565b60408051636eb1769f60e11b8082529294919392916001600160a01b03808716926020929091838380611f278a3060048401611ed6565b0381885afa92831561208a575f93612094575b5081831015611fc157508291611f4f916111f7565b93865193849182528180611f67893060048401611ed6565b03915afa94851561173d57505f94611f90575b5050820180921161100057611f8e926120de565b565b8181959293953d8311611fba575b611fa88183610d33565b810103126107cd575051915f80611f7a565b503d611f9e565b92939181819a99989a11611fdc575b50505050505050509050565b8491611fe7916111f7565b94895192839182528180611fff8a3060048401611ed6565b03915afa92831561208a575f93612059575b5050828210612036575061202894955003916120de565b805f80808080808080611fd0565b865163e570110f60e01b8152931660048401526024830152604482015260649150fd5b8181949293943d8311612083575b6120718183610d33565b810103126107cd575051905f80612011565b503d612067565b88513d5f823e3d90fd5b90928482813d83116120bc575b6120ab8183610d33565b810103126107cd575051915f611f3a565b503d6120a1565b6001600160a01b039091168152602081019190915260400190565b6040519160205f8185016121138661210563095ea7b360e01b998a855287602484016120c3565b03601f198101885287610d33565b85519082865af15f513d82612176575b505015612131575b50505050565b61216d936121689160405191602083015260018060a01b031660248201525f60448201526044815261216281610d18565b8261219b565b61219b565b5f80808061212b565b90915061219357506001600160a01b0382163b15155b5f80612123565b60011461218c565b905f602091828151910182855af1156110ed575f513d6121ec57506001600160a01b0381163b155b6121ca5750565b604051635274afe760e01b81526001600160a01b039091166004820152602490fd5b600114156121c3565b5f9291906e313ab33332b922bc32b1baba34b7b760891b811461226e577637b721b430b4b72830bcb6b2b73a22bc32b1baba34b7b760491b8114612262577737b33321b430b4b72830bcb6b2b73a22bc32b1baba34b7b760411b146122575750565b610dc29192506125b4565b50610dc29192506123b5565b50610dc291925061227d6112da565b50612292602091828082518301019101612cbc565b838180959394955181010312610cc9576122ae828092016113c4565b9201518181805181010312610cc957816122c891016113c4565b6001600160801b03928491848316156123ab576122e491611483565b93600754848116918587168084105f146123675750505061232a61235b917fd147280d0534554bdbde9735d80e85a2ddccc3a7edcadd8eccb85330f4d9bce69596610fe7565b808310838218021880926007548761234484828416611483565b6001600160801b0319909216911617600755610fe7565b9360405191168152a190565b9196939550935080821161237f575b50505050905090565b61239b9394506123a19560018060801b03191617600755610fe7565b90611483565b805f808080612376565b5050505050505f90565b6123d5906123c16112da565b506020918183808094518301019101612cbc565b92919301516040938482805181010312610cc9576123ff856123f88585016110f8565b93016113c4565b9060018060a01b03809316948481805181010312610cc957846124229101611032565b6001600160801b03808416949093919085156125a85760055416868951809263c690743960e01b8252818061245b8d3060048401611ed6565b03915afa90811561259e575f91612548575b509361250d9361251b96936124ca93612498610dc29b9a988561248e610ebc565b9116881115610f1f565b156125415781811081831802821892612344600754926124bb8684861692610fe7565b81811090821802811890610fe7565b96857f37b16a7dc6b72b62462d83ee1a207b1ca93d2452a59f55e26a86f9d253c91bfd858351858152a25194859363a9059cbb60e01b90850152602484016120c3565b03601f198101835282610d33565b7f000000000000000000000000000000000000000000000000000000000000000061219b565b9150610fe7565b908782813d8311612597575b61255e8183610d33565b810103126107cd57509361250d9361251b96936124ca93612498612586610dc29c9b996113c4565b94989a9b505093509396509361246d565b503d612554565b89513d5f823e3d90fd5b50505094505050505090565b6125c0906123c16112da565b92919301518181805181010312610cc957816125dc91016113c4565b918181805181010312610cc957816125f49101611032565b6001600160801b0392808416918215612683577f1ca93425188fb1ff998b8f5508acb5e1c5727f031d04118a44919b06fa788e989495612652915f1461267c5780831083821802811890600754886123448183166124bb8689610fe7565b946126615f5492828416611483565b6001600160801b03199092169116175f55604051908152a190565b8290610fe7565b505050505090565b610dc29060018060801b036101406127306127226127146127076126fa6126ed6126e06126d36126c68b8b6020818351169201511690611483565b8a60408d01511690611483565b8960608c01511690611483565b8860808b01511690611483565b8760a08a01511690611483565b8660c08901511690611483565b8560e08801511690611483565b846101008701511690611483565b836101208601511690611483565b9201511690611483565b919092935f5b8151811015612c6f576127538183611337565b5115612c0b575b60016127668284611337565b5114612bb2575b60026127798284611337565b5114612b52575b600361278c8284611337565b5114612aee575b600461279f8284611337565b5114612a8a575b60056127b28284611337565b5114612a26575b60066127c58284611337565b51146129c2575b60076127d88284611337565b511461295c575b60086127eb8284611337565b51146128ff575b60096127fe8284611337565b5114612899575b600a6128118284611337565b5114612826575b612821906112f3565b612740565b93949161010081019160018060801b03958684511680888a16105f146128655750505050505061014061285e91019282845116611483565b1690525f90565b96612879819293959861282195979a610fe7565b9751169061288f61014088019282845116611483565b1690529050612818565b93949160e081019160018060801b03958684511680888a16105f146128d05750505050505061012061285e91019282845116611483565b6128e1908893959892949699610fe7565b965116906128f761012087019282845116611483565b169052612805565b9392949161012081019160018060801b03958684511680888816105f146129335750505050505061285e9082845116611483565b96612948819395986129549395979a98610fe7565b97511682875116611483565b1684526127f2565b93949160c081019160018060801b03958684511680888a16105f146129935750505050505061010061285e91019282845116611483565b6129a4908893959892949699610fe7565b965116906129ba61010087019282845116611483565b1690526127df565b93949160a081019160018060801b03958684511680888a16105f146129f85750505050505060e061285e91019282845116611483565b612a09908893959892949699610fe7565b96511690612a1e60e087019282845116611483565b1690526127cc565b939491608081019160018060801b03958684511680888a16105f14612a5c5750505050505060c061285e91019282845116611483565b612a6d908893959892949699610fe7565b96511690612a8260c087019282845116611483565b1690526127b9565b939491602081019160018060801b03958684511680888a16105f14612ac05750505050505060a061285e91019282845116611483565b612ad1908893959892949699610fe7565b96511690612ae660a087019282845116611483565b1690526127a6565b939491606081019160018060801b03958684511680888a16105f14612b2457505050505050608061285e91019282845116611483565b612b35908893959892949699610fe7565b96511690612b4a608087019282845116611483565b169052612793565b825194956001600160801b039590939291908616868816811115612b86575050505050606061285e91019282845116611483565b612b939192939497610fe7565b948084511690612baa606087019282845116611483565b169052612780565b93946001600160801b0394909291908584168688161015612be25750505050604061285e91019282845116611483565b9091929586612bf091610fe7565b946040850190612c038882845116611483565b16905261276d565b939491604081019160018060801b03958684511680888a16105f14612c4157505050505050602061285e91019282845116611483565b612c52908893959892949699610fe7565b96511690612c67602087019282845116611483565b16905261275a565b505050505050600190565b81601f82011215610cc9578051612c9081610d56565b92612c9e6040519485610d33565b81845260208284010111610cc957610dc29160208085019101610ed9565b91606083830312610cc957612cd0836113c4565b602084015190936001600160401b03939091848111610cc9578201604081830312610cc95760405190612d0282610ccd565b80518252602081015190868211610cc957612d1f91849101612c7a565b6020820152936040830151908111610cc957610dc29201612c7a565b81601f82011215610cc957805191612d5283610e08565b92612d606040519485610d33565b808452602092838086019260051b820101928311610cc9578301905b828210612d8a575050505090565b81518152908301908301612d7c565b809291036101a08112610cc9576040908151612db481610cfc565b8094612dbf816110f8565b8252612dcd602082016110f8565b602083015283603f19840112610cc9578351612de881610ccd565b612df38583016110f8565b8152612e01606083016113c4565b602082015284830152612e16608082016110f8565b6060830152612e2760a08201611032565b6080830152612e3860c08201611032565b60a0830152612e4960e08201611032565b60c0830152608061010093612e5f8584016113c4565b60e085015261011f190112610cc957610180612eb991855195612e8187610d18565b612e8e61012083016113c4565b8752612e9d61014083016113c4565b6020880152612eaf61016083016113c4565b9087015201611032565b60608401520152565b6040516020818181019360408201838652815180915260608301938060608360051b8601019301945f905b838210612f115750505050612f0b925003601f198101835282610d33565b51902090565b9160019193955080612f2e8196605f198b8203018652895161134b565b97019201920186949295939195612eed56fe9d98d3d08f0062b192694645e127c98e5f96f3bbec331d061acaac3ace2327f965aa5eac1b32fde55d4db583460221274367300ae805596cf543907b5d458c00a2646970667358221220cc35ab7e12035a4fb5e8efc699d525981877f2b066fa0fa122583d00cf028b7d64736f6c63430008140033","linkReferences":{"src/libraries/SignatureLib.sol":{"SignatureLib":[{"start":4712,"length":20}]}}},"methodIdentifiers":{"ADMIN_ROLE()":"75b238fc","FUNDS_MANAGER_ROLE()":"c4707a83","OPS_ROLE()":"0f3ba023","acceptAccountAdmin()":"34adc3f4","accountAdmin()":"34abd246","accountToken()":"5aacdc99","approvedOperationalSelectors(bytes32,address,bytes4)":"4fd0faeb","approvedRoleAddresses(bytes32,address)":"4eed31c6","bufferBalance()":"1298f13c","callConfigFunction(address,bytes)":"c728b5ac","claimOffChainAmount(uint128)":"313ad985","getAvailableBalance()":"809dab6a","isValidSignature(bytes32,bytes)":"1626ba7e","offChainPendingBalance()":"9c5fe7a8","permissionsRegistry()":"3df8504b","proposeNewAccountAdmin(address)":"4bc853c7","proposedAccountAdmin()":"1e6b129b","runWaterfall((bytes32,bytes)[],(bytes32,bytes)[][])":"11b4d566","setBufferBalance(uint128)":"0c93d712","setOffChainPendingBalance(uint256)":"e5993b80","setPermissionsRegistry(address)":"33832a6a","tranchedPool()":"1d470c70","updateRoleAddressStatus(bytes32,address,bool)":"1c7ef7f9","updateSelectorApproval(bytes32,address,bytes4,bool)":"d8e13fcd","updateWaterfallConfig((bytes32,bytes)[])":"f32469b4","waterfallConfigurationHash()":"572bbc01"},"id":35}