{"abi":[{"type":"constructor","inputs":[{"name":"initialAccountToken","type":"address","internalType":"address"},{"name":"initialTranchedPool","type":"address","internalType":"address"},{"name":"initialPermissionsRegistry","type":"address","internalType":"address"}],"stateMutability":"nonpayable"},{"type":"function","name":"ADMIN_ROLE","inputs":[],"outputs":[{"name":"","type":"bytes32","internalType":"bytes32"}],"stateMutability":"view"},{"type":"function","name":"FUNDS_MANAGER_ROLE","inputs":[],"outputs":[{"name":"","type":"bytes32","internalType":"bytes32"}],"stateMutability":"view"},{"type":"function","name":"OPS_ROLE","inputs":[],"outputs":[{"name":"","type":"bytes32","internalType":"bytes32"}],"stateMutability":"view"},{"type":"function","name":"acceptAccountAdmin","inputs":[],"outputs":[],"stateMutability":"nonpayable"},{"type":"function","name":"accountAdmin","inputs":[],"outputs":[{"name":"","type":"address","internalType":"address"}],"stateMutability":"view"},{"type":"function","name":"accountToken","inputs":[],"outputs":[{"name":"","type":"address","internalType":"contract IERC20"}],"stateMutability":"view"},{"type":"function","name":"approvedOperationalSelectors","inputs":[{"name":"","type":"bytes32","internalType":"bytes32"},{"name":"","type":"address","internalType":"address"},{"name":"","type":"bytes4","internalType":"bytes4"}],"outputs":[{"name":"","type":"bool","internalType":"bool"}],"stateMutability":"view"},{"type":"function","name":"approvedRoleAddresses","inputs":[{"name":"","type":"bytes32","internalType":"bytes32"},{"name":"","type":"address","internalType":"address"}],"outputs":[{"name":"","type":"bool","internalType":"bool"}],"stateMutability":"view"},{"type":"function","name":"bufferBalance","inputs":[],"outputs":[{"name":"","type":"uint128","internalType":"uint128"}],"stateMutability":"view"},{"type":"function","name":"callConfigFunction","inputs":[{"name":"to","type":"address","internalType":"address"},{"name":"_calldata","type":"bytes","internalType":"bytes"}],"outputs":[],"stateMutability":"nonpayable"},{"type":"function","name":"claimOffChainAmount","inputs":[{"name":"amount","type":"uint128","internalType":"uint128"}],"outputs":[],"stateMutability":"nonpayable"},{"type":"function","name":"getAvailableBalance","inputs":[],"outputs":[{"name":"availableBalance","type":"uint128","internalType":"uint128"}],"stateMutability":"view"},{"type":"function","name":"isValidSignature","inputs":[{"name":"hash","type":"bytes32","internalType":"bytes32"},{"name":"signature","type":"bytes","internalType":"bytes"}],"outputs":[{"name":"returnValue","type":"bytes4","internalType":"bytes4"}],"stateMutability":"view"},{"type":"function","name":"offChainPendingBalance","inputs":[],"outputs":[{"name":"","type":"uint128","internalType":"uint128"}],"stateMutability":"view"},{"type":"function","name":"permissionsRegistry","inputs":[],"outputs":[{"name":"","type":"address","internalType":"contract IPermissionsRegistry"}],"stateMutability":"view"},{"type":"function","name":"proposeNewAccountAdmin","inputs":[{"name":"newAccountAdmin","type":"address","internalType":"address"}],"outputs":[],"stateMutability":"nonpayable"},{"type":"function","name":"proposedAccountAdmin","inputs":[],"outputs":[{"name":"","type":"address","internalType":"address"}],"stateMutability":"view"},{"type":"function","name":"runWaterfall","inputs":[{"name":"waterfallConfiguration","type":"tuple[]","internalType":"struct WaterfallStepConfig[]","components":[{"name":"stepType","type":"bytes32","internalType":"bytes32"},{"name":"executionConfig","type":"bytes","internalType":"bytes"}]},{"name":"waterfallToRun","type":"tuple[][]","internalType":"struct WaterfallStep[][]","components":[{"name":"stepType","type":"bytes32","internalType":"bytes32"},{"name":"executionData","type":"bytes","internalType":"bytes"}]}],"outputs":[],"stateMutability":"nonpayable"},{"type":"function","name":"setBufferBalance","inputs":[{"name":"newBufferBalance","type":"uint128","internalType":"uint128"}],"outputs":[],"stateMutability":"nonpayable"},{"type":"function","name":"setOffChainPendingBalance","inputs":[{"name":"newOffChainPendingBalance","type":"uint256","internalType":"uint256"}],"outputs":[],"stateMutability":"nonpayable"},{"type":"function","name":"setPermissionsRegistry","inputs":[{"name":"newPermissionsRegistry","type":"address","internalType":"address"}],"outputs":[],"stateMutability":"nonpayable"},{"type":"function","name":"tranchedPool","inputs":[],"outputs":[{"name":"","type":"address","internalType":"contract ITranchedPool"}],"stateMutability":"view"},{"type":"function","name":"updateRoleAddressStatus","inputs":[{"name":"role","type":"bytes32","internalType":"bytes32"},{"name":"addressToUpdate","type":"address","internalType":"address"},{"name":"newStatus","type":"bool","internalType":"bool"}],"outputs":[],"stateMutability":"nonpayable"},{"type":"function","name":"updateSelectorApproval","inputs":[{"name":"role","type":"bytes32","internalType":"bytes32"},{"name":"addressApproved","type":"address","internalType":"address"},{"name":"selectorToUpdate","type":"bytes4","internalType":"bytes4"},{"name":"newStatus","type":"bool","internalType":"bool"}],"outputs":[],"stateMutability":"nonpayable"},{"type":"function","name":"updateWaterfallConfig","inputs":[{"name":"newWaterfallConfiguration","type":"tuple[]","internalType":"struct WaterfallStepConfig[]","components":[{"name":"stepType","type":"bytes32","internalType":"bytes32"},{"name":"executionConfig","type":"bytes","internalType":"bytes"}]}],"outputs":[],"stateMutability":"nonpayable"},{"type":"function","name":"waterfallConfigurationHash","inputs":[],"outputs":[{"name":"","type":"bytes32","internalType":"bytes32"}],"stateMutability":"view"},{"type":"event","name":"Buffer","inputs":[{"name":"amount","type":"uint128","indexed":false,"internalType":"uint128"}],"anonymous":false},{"type":"event","name":"OffchainPayment","inputs":[{"name":"amount","type":"uint128","indexed":false,"internalType":"uint128"}],"anonymous":false},{"type":"event","name":"OnchainPayment","inputs":[{"name":"receiver","type":"address","indexed":true,"internalType":"address"},{"name":"amount","type":"uint128","indexed":false,"internalType":"uint128"}],"anonymous":false},{"type":"error","name":"SafeERC20FailedDecreaseAllowance","inputs":[{"name":"spender","type":"address","internalType":"address"},{"name":"currentAllowance","type":"uint256","internalType":"uint256"},{"name":"requestedDecrease","type":"uint256","internalType":"uint256"}]},{"type":"error","name":"SafeERC20FailedOperation","inputs":[{"name":"token","type":"address","internalType":"address"}]}],"bytecode":{"object":"0x60c034620000fb57601f620025f038819003918201601f19168301916001600160401b03831184841017620000ff57808492606094604052833981010312620000fb576200004d8162000113565b906200006a6040620000626020840162000113565b920162000113565b6001600160a01b03928316608052600180546001600160a01b03199081163317909155600580549091169184169190911790551660a0526040516124c790816200012982396080518181816105f50152818161117b015281816117190152611f94015260a051818181610903015281816114eb015281816115f101528181611678015281816116e90152611b780152f35b5f80fd5b634e487b7160e01b5f52604160045260245ffd5b51906001600160a01b0382168203620000fb5756fe604060808152600480361015610013575f80fd5b5f91823560e01c9081630c93d71214610c6a5781630f3ba02314610c4257816311b4d56614610a125781631298f13c146109e95781631626ba7e146109975781631c7ef7f9146109325781631d470c70146108ee5781631e6b129b146108c5578163313ad9851461084257816333832a6a146107f957816334abd246146107d057816334adc3f4146107815781633df8504b146107585781634bc853c7146106ee5781634eed31c6146106a65781634fd0faeb14610643578163572bbc01146106245781635aacdc99146105e057816375b238fc146105a5578163809dab6a146105775781639c5fe7a81461054f578163c4707a8314610527578163c728b5ac1461026c578163d8e13fcd146101e757508063e5993b80146101ac5763f32469b41461013d575f80fd5b346101a85760203660031901126101a85780356001600160401b0381116101a457366023820112156101a45761019e9181602461017f93369301359101610e35565b61019961018b33610f66565b610193610ed3565b90610f36565b6123d3565b60065580f35b8280fd5b5080fd5b50346101a85760203660031901126101a8576101ca61018b33610f66565b81546001600160801b03191690356001600160801b031617815580f35b9050346101a45760803660031901126101a457610202610df2565b9061020b610e1e565b606435928315158403610268576102659461022861018b33610f66565b803587526020528286209060018060a01b031686526020528185209063ffffffff60e01b16855260205283209060ff801983541691151516179055565b80f35b8580fd5b9050346101a457806003193601126101a457610286610e08565b6024919082356001600160401b038082116105235736602383011215610523578186013590811161052357848201913686838301011161051f576102d46102cb611135565b88841015610f36565b811561050d5782356001600160f81b0319169060018311156104fb57602581013560081c60ff60f01b1660028411156104e957602682013560101c60ff60e81b169160038511156104d757928a9694919287969361036995602760ff60e01b91013560181c1661034333610f66565b92831561047f575b83156103e5575b5050506103629150610193610ed3565b3691610d9e565b9082602083519301915af13d156103e0573d61038481610d83565b9061039184519283610d60565b81528560203d92013e5b156103a4578380f35b606492916020601792519362461bcd60e51b855284015282015276115e1958dd5d1948199d5b98dd1a5bdb8819985a5b1959604a1b6044820152fd5b61039b565b909192505f8051602061245283398151915292838a5260036020528b8a20338b5260205260ff8c8b20541693841561046a575b8461042f575b5050505061036291505f8080610352565b909192935089528c6020528a892060018060a01b0389168a526020528a892093171717865260205261036260ff88872054165f80808061041e565b6001546001600160a01b031633149450610418565b925061048a33610fb7565b80610496575b9261034b565b505f80516020612472833981519152895260208d81528b8a206001600160a01b038a168b5281528b8a20858417851783178b5290528a89205460ff16610490565b634e487b7160e01b8b5260328a52888bfd5b634e487b7160e01b8a5260328952878afd5b634e487b7160e01b8952603288528689fd5b634e487b7160e01b8852603287528588fd5b8780fd5b8680fd5b8390346101a857816003193601126101a857602090515f805160206124528339815191528152f35b8390346101a857816003193601126101a857905490516001600160801b039091168152602090f35b8390346101a857816003193601126101a857602090610594611160565b90516001600160801b039091168152f35b8390346101a857816003193601126101a857602090517fa49807205ce4d355092ef5a8a18f56e8913cf4a201fbe287825b095693c217758152f35b8390346101a857816003193601126101a857517f00000000000000000000000000000000000000000000000000000000000000006001600160a01b03168152602090f35b8390346101a857816003193601126101a8576020906006549051908152f35b919050346101a45760603660031901126101a4578160209360ff92610666610df2565b61066e610e1e565b823584529187528383206001600160a01b03909116835286528282206001600160e01b03199091168252855220549151911615158152f35b919050346101a457816003193601126101a4578160209360ff926106c8610df2565b90358252600386528282206001600160a01b039091168252855220549151911615158152f35b8390346101a85760203660031901126101a85761074161070c610e08565b61071861018b33610f66565b60018060a01b0316915161072b81610ce7565b60018152601960f91b6020820152821515610f36565b600280546001600160a01b03191691909117905580f35b8390346101a857816003193601126101a85760055490516001600160a01b039091168152602090f35b83346107cd57806003193601126107cd576002546107b16107a0610ed3565b336001600160a01b03841614610f36565b600180546001600160a01b031990811633179091551660025580f35b80fd5b8390346101a857816003193601126101a85760015490516001600160a01b039091168152602090f35b83346107cd5760203660031901126107cd57610813610e08565b61081f61018b33610f66565b600580546001600160a01b0319166001600160a01b039290921691909117905580f35b919050346101a45760203660031901126101a4576001600160801b03903581811692908381036108c1576108ad9161087c61018b33610fb7565b6108a88654958587168093519161089283610ce7565b6002835261323160f01b60208401521115610f36565b611108565b6001600160801b0319909216911617815580f35b8480fd5b8390346101a857816003193601126101a85760025490516001600160a01b039091168152602090f35b8390346101a857816003193601126101a857517f00000000000000000000000000000000000000000000000000000000000000006001600160a01b03168152602090f35b9050346101a45760603660031901126101a45761094d610df2565b906044359182151583036108c1576102659361096b61018b33610f66565b35855260036020528185209060018060a01b0316855260205283209060ff801983541691151516179055565b905082346107cd57816003193601126107cd57602435906001600160401b0382116107cd57506020926109d06109d79236908301610dd4565b9035611012565b90516001600160e01b03199091168152f35b8390346101a857816003193601126101a85760075490516001600160801b039091168152602090f35b9050346101a457806003193601126101a4576001600160401b039180358381116108c157610a439036908301610cb3565b90916024359085821161052357610a5c91369101610cb3565b9490610a6a61018b33610fb7565b845191610a7683610ce7565b600195868452610a93602094600d60fa1b86820152868a14610f36565b610ac7610aa461019936888a610e35565b60065414825190610ab482610ce7565b60028252610c4d60f21b87830152610f36565b610acf611160565b92610ad8611236565b50895b898110610ae6578a80f35b8a6005601e1983821b850135368690038201811215610c3e5785018035908882116108c1578a019281811b360384136108c1578c908e95610b2c8e968896953691610e35565b928d610b398a898461125d565b359783995b610b5b575b50505050505050505050610b569061124f565b610adb565b899e9394959697989987511115610c32578a8f9183610b8f93891b8a01015194610b8a8d875114610193611135565b61125d565b908101359087813603018212156108c15701908135918d83116108c1578f019180360383136108c1578f610c2394610c1d948f601f85610c1796610bee8451998a9760018060801b031689890152606080968901526080880190611293565b94831994858888030190880152818652878601378a868286010152011601038084520182610d60565b886112b0565b9b61124f565b9594939291908e8d8f87610b3e565b84939e50889750610b43565b8380fd5b8390346101a857816003193601126101a857602090515f805160206124728339815191528152f35b5050346101a85760203660031901126101a857356001600160801b038116908190036101a857610c9c61018b33610f66565b600780546001600160801b03191691909117905580f35b9181601f84011215610ce3578235916001600160401b038311610ce3576020808501948460051b010111610ce357565b5f80fd5b604081019081106001600160401b03821117610d0257604052565b634e487b7160e01b5f52604160045260245ffd5b6001600160401b038111610d0257604052565b61012081019081106001600160401b03821117610d0257604052565b608081019081106001600160401b03821117610d0257604052565b601f909101601f19168101906001600160401b03821190821017610d0257604052565b6001600160401b038111610d0257601f01601f191660200190565b929192610daa82610d83565b91610db86040519384610d60565b829481845281830111610ce3578281602093845f960137010152565b9080601f83011215610ce357816020610def93359101610d9e565b90565b602435906001600160a01b0382168203610ce357565b600435906001600160a01b0382168203610ce357565b604435906001600160e01b031982168203610ce357565b909291906001600160401b03808511610d02578460051b60409384519460208096610e6282860182610d60565b809981520192850194828611610ce35780935b868510610e86575050505050505050565b8435868111610ce35782018381860312610ce357835191610ea683610ce7565b813583528982013592888411610ce357610ec4878c95869501610dd4565b83820152815201940193610e75565b60405190610ee082610ce7565b60018252603560f81b6020830152565b5f5b838110610f015750505f910152565b8181015183820152602001610ef2565b90602091610f2a81518092818552858086019101610ef0565b601f01601f1916010190565b15610f3e5750565b60405162461bcd60e51b815260206004820152908190610f62906024830190610f11565b0390fd5b6001600160a01b039081165f8181527fa665d3385c074a5fa4bcec2a570c94dbdb08d6b09bca4e08f8c3951c94a3d998602052604090205460ff16918215610fad57505090565b6001541614919050565b6001600160a01b039081165f8181527f80d356b715435c939ec5e2d86f8b562665d414e34e6d34252ab12346da0ff9de602052604090205460ff16918215610fad57505090565b51906001600160a01b0382168203610ce357565b61104191604051916397aba7f960e01b8352600483015260406024830152818060209485936044830190610f11565b038173__$ba1615e65aace131a136fe2ca5d0e0d2d0$__5af49081156110fd575f916110c8575b506001600160a01b0316801515918261109a575b50501561108e57630b135d3f60e11b90565b6001600160e01b031990565b9091505f805160206124528339815191525f526003815260405f20915f525260ff60405f2054165f8061107c565b908282813d83116110f6575b6110de8183610d60565b810103126107cd57506110f090610ffe565b5f611068565b503d6110d4565b6040513d5f823e3d90fd5b6001600160801b03918216908216039190821161112157565b634e487b7160e01b5f52601160045260245ffd5b6040519061114282610ce7565b6002825261323560f01b6020830152565b9190820391821161112157565b6040516370a0823160e01b81523060048201526020816024817f00000000000000000000000000000000000000000000000000000000000000006001600160a01b03165afa9081156110fd575f91611205575b506007546001600160801b03916111db916111d19190841690611153565b825f541690611153565b6112016040516111ea81610ce7565b60018152603760f81b602082015283831115610f36565b1690565b906020823d821161122e575b8161121e60209383610d60565b810103126107cd5750515f6111b3565b3d9150611211565b6040519061124382610ce7565b60606020835f81520152565b5f1981146111215760010190565b919081101561127f5760051b81013590603e1981360301821215610ce3570190565b634e487b7160e01b5f52603260045260245ffd5b9060406020610def93805184520151918160208201520190610f11565b90781d1c985b98da19525b98dc99585cd950dbdb5b5a5d1b595b9d603a1b821461137557781d1c985b98da19511958dc99585cd950dbdb5b5a5d1b595b9d603a1b821461136b576d1d1c985b98da1951195c1bdcda5d60921b821461136157701d1c985b98da1955da5d1a191c985dd85b607a1b8214611357576f3a3930b739b332b92837b9b4ba34b7b760811b821461134d57610def91611c5e565b610def915061142a565b610def9150611adc565b610def91506116cb565b610def915061165c565b610def91506115d5565b606060206101809260018060a01b0380825116865280838301511683870152604082015181815116604088015260018060801b0393849101511684870152838201511660808601526080810151151560a086015260a0810151151560c086015260c0810151151560e08601528160e082015116906101009182870152015190808251166101208601528060208301511661014086015260408201511661016085015201511515910152565b6114506020916114386121d0565b50611441611236565b50828082518301019101612144565b5091909101518051810190610260918282820312610ce35761147460208301611e18565b9061148160408401611e18565b61148d60608501611e18565b9161149a60808601611e18565b956114b760206114ac60a08901610ffe565b930160c08801612249565b9501516001600160801b03948516969094908715806115a0575b80611596575b8061158c575b611581576001600160a01b037f0000000000000000000000000000000000000000000000000000000000000000811695909490863b15610ce3578380926040519b8c9b8c9b636324d79160e11b8d5260048d015260248c0161153e9161137f565b6101c48b0152166101e48901521661020487015216610224850152166102448301525a925f610264928195f180156110fd57611578575090565b610def90610d16565b505050505050505090565b50818116156114dd565b50818516156114d7565b50818416156114d1565b91926115c76101c09295946101e08501968552602085019061137f565b6001600160801b0316910152565b6115de90612372565b90916001600160801b03811615611656577f00000000000000000000000000000000000000000000000000000000000000006001600160a01b0316803b15610ce357611644935f8094604051968795869485936310031a5d60e11b8552600485016115aa565b03925af180156110fd57611578575090565b50505090565b61166590612372565b90916001600160801b03811615611656577f00000000000000000000000000000000000000000000000000000000000000006001600160a01b0316803b15610ce357611644935f80946040519687958694859363c70c740360e01b8552600485016115aa565b6116d490612372565b6001600160801b0383169391908415611793577f00000000000000000000000000000000000000000000000000000000000000006001600160a01b03169461173d90867f00000000000000000000000000000000000000000000000000000000000000006117b5565b843b15610ce35761176a945f928386936040519889958694859363cec6607360e01b8552600485016115aa565b03925af19283156110fd57610def93611784575b50611108565b61178d90610d16565b5f61177e565b505091505090565b6001600160a01b0391821681529116602082015260400190565b60408051636eb1769f60e11b8082529294919392916001600160a01b038087169260209290918383806117ec8a306004840161179b565b0381885afa928315611958575f93611962575b508183101561188f5750829161181491611153565b9386519384918252818061182c89306004840161179b565b03915afa94851561188657505f94611855575b5050820180921161112157611853926119ac565b565b8181959293953d831161187f575b61186d8183610d60565b810103126107cd575051915f8061183f565b503d611863565b513d5f823e3d90fd5b92939181819a99989a116118aa575b50505050505050509050565b84916118b591611153565b948951928391825281806118cd8a306004840161179b565b03915afa928315611958575f93611927575b505082821061190457506118f694955003916119ac565b805f8080808080808061189e565b865163e570110f60e01b8152931660048401526024830152604482015260649150fd5b8181949293943d8311611951575b61193f8183610d60565b810103126107cd575051905f806118df565b503d611935565b88513d5f823e3d90fd5b90928482813d831161198a575b6119798183610d60565b810103126107cd575051915f6117ff565b503d61196f565b6001600160a01b039091168152602081019190915260400190565b6040519160205f8185016119e1866119d363095ea7b360e01b998a85528760248401611991565b03601f198101885287610d60565b85519082865af15f513d82611a44575b5050156119ff575b50505050565b611a3b93611a369160405191602083015260018060a01b031660248201525f604482015260448152611a3081610d45565b82611a69565b611a69565b5f8080806119f9565b909150611a6157506001600160a01b0382163b15155b5f806119f1565b600114611a5a565b905f602091828151910182855af1156110fd575f513d611aba57506001600160a01b0381163b155b611a985750565b604051635274afe760e01b81526001600160a01b039091166004820152602490fd5b60011415611a91565b6001600160801b03918216908216019190821161112157565b611aea6020916114386121d0565b5091909101519081518201610240908184820312610ce357611b0e60208501611e18565b611b1a60408601611e18565b91611b2760608701611e18565b93611b446020611b3960808a01610ffe565b930160a08901612249565b960151949586956001600160a01b03928316926001600160801b038581169391841580611c54575b80611c4a575b611c3c577f00000000000000000000000000000000000000000000000000000000000000001692833b15610ce3575f809461024493611bcc976040519889978896636a69df5560e01b88526004880152602487019061137f565b6101c4850152808b166101e48501528b16610204840152876102248401525af180156110fd57611c2d575b503014611c06575b5050505090565b611c249450611c1e9291611c1991611ac3565b611ac3565b90611ac3565b5f808080611bff565b611c3690610d16565b5f611bf7565b505050505050505050905090565b5081891615611b72565b5081881615611b6c565b5f9291906e313ab33332b922bc32b1baba34b7b760891b8114611cd7577637b721b430b4b72830bcb6b2b73a22bc32b1baba34b7b760491b8114611ccb577737b33321b430b4b72830bcb6b2b73a22bc32b1baba34b7b760411b14611cc05750565b610def91925061202b565b50610def919250611e2c565b50610def919250611ce6611236565b50611cfb602091828082518301019101612144565b838180959394955181010312610ce357611d1782809201611e18565b9201518181805181010312610ce35781611d319101611e18565b6001600160801b0392849184831615611e0e57611d4d91611ac3565b93600754848116918587168084105f14611dd057505050611d93611dc4917fd147280d0534554bdbde9735d80e85a2ddccc3a7edcadd8eccb85330f4d9bce69596611108565b8083108382180218809260075487611dad84828416611ac3565b6001600160801b0319909216911617600755611108565b9360405191168152a190565b91969395509350808211611de8575b50505050905090565b611c1e939450611e049560018060801b03191617600755611108565b805f808080611ddf565b5050505050505f90565b51906001600160801b0382168203610ce357565b611e4c90611e38611236565b506020918183808094518301019101612144565b92919301516040938482805181010312610ce357611e7685611e6f858501610ffe565b9301611e18565b9060018060a01b03809316948481805181010312610ce35784611e9991016121c3565b6001600160801b038084169490939190851561201f5760055416868951809263c690743960e01b82528180611ed28d306004840161179b565b03915afa908115612015575f91611fbf575b5093611f8493611f929693611f4193611f0f610def9b9a9885611f05610ed3565b9116881115610f36565b15611fb85781811081831802821892611dad60075492611f328684861692611108565b81811090821802811890611108565b96857f37b16a7dc6b72b62462d83ee1a207b1ca93d2452a59f55e26a86f9d253c91bfd858351858152a25194859363a9059cbb60e01b9085015260248401611991565b03601f198101835282610d60565b7f0000000000000000000000000000000000000000000000000000000000000000611a69565b9150611108565b908782813d831161200e575b611fd58183610d60565b810103126107cd575093611f8493611f929693611f4193611f0f611ffd610def9c9b99611e18565b94989a9b5050935093965093611ee4565b503d611fcb565b89513d5f823e3d90fd5b50505094505050505090565b61203790611e38611236565b92919301518181805181010312610ce357816120539101611e18565b918181805181010312610ce3578161206b91016121c3565b6001600160801b03928084169182156120fa577f1ca93425188fb1ff998b8f5508acb5e1c5727f031d04118a44919b06fa788e9894956120c9915f146120f3578083108382180281189060075488611dad818316611f328689611108565b946120d85f5492828416611ac3565b6001600160801b03199092169116175f55604051908152a190565b8290611108565b505050505090565b81601f82011215610ce357805161211881610d83565b926121266040519485610d60565b81845260208284010111610ce357610def9160208085019101610ef0565b91606083830312610ce35761215883611e18565b602084015190936001600160401b03939091848111610ce3578201604081830312610ce3576040519061218a82610ce7565b80518252602081015190868211610ce3576121a791849101612102565b6020820152936040830151908111610ce357610def9201612102565b51908115158203610ce357565b604051906121dd82610d29565b816101005f918281528260208201526040516121f881610ce7565b83815283602082015260408201528260608201528260808201528260a08201528260c08201528260e08201526040519261223184610d45565b80845280602085015280604085015260608401520152565b809291036101a08112610ce357604090815161226481610d29565b809461226f81610ffe565b825261227d60208201610ffe565b602083015283603f19840112610ce357835161229881610ce7565b6122a3858301610ffe565b81526122b160608301611e18565b6020820152848301526122c660808201610ffe565b60608301526122d760a082016121c3565b60808301526122e860c082016121c3565b60a08301526122f960e082016121c3565b60c083015260806101009361230f858401611e18565b60e085015261011f190112610ce3576101806123699185519561233187610d45565b61233e6101208301611e18565b875261234d6101408301611e18565b602088015261235f6101608301611e18565b90870152016121c3565b60608401520152565b906123996020926123816121d0565b5061238a611236565b50838082518301019101612144565b50929092015180518101906101e08082840312610ce3576123cb60206123c0818501611e18565b940160408401612249565b910151909192565b6040516020818181019360408201838652815180915260608301938060608360051b8601019301945f905b838210612422575050505061241c925003601f198101835282610d60565b51902090565b916001919395508061243f8196605f198b82030186528951611293565b970192019201869492959391956123fe56fe9d98d3d08f0062b192694645e127c98e5f96f3bbec331d061acaac3ace2327f965aa5eac1b32fde55d4db583460221274367300ae805596cf543907b5d458c00a264697066735822122010c67e29bba2a1a98fbbcf02172421afb3ade9c13be03a03d57513b487921b9f64736f6c63430008140033","linkReferences":{"src/libraries/SignatureLib.sol":{"SignatureLib":[{"start":4462,"length":20}]}}},"methodIdentifiers":{"ADMIN_ROLE()":"75b238fc","FUNDS_MANAGER_ROLE()":"c4707a83","OPS_ROLE()":"0f3ba023","acceptAccountAdmin()":"34adc3f4","accountAdmin()":"34abd246","accountToken()":"5aacdc99","approvedOperationalSelectors(bytes32,address,bytes4)":"4fd0faeb","approvedRoleAddresses(bytes32,address)":"4eed31c6","bufferBalance()":"1298f13c","callConfigFunction(address,bytes)":"c728b5ac","claimOffChainAmount(uint128)":"313ad985","getAvailableBalance()":"809dab6a","isValidSignature(bytes32,bytes)":"1626ba7e","offChainPendingBalance()":"9c5fe7a8","permissionsRegistry()":"3df8504b","proposeNewAccountAdmin(address)":"4bc853c7","proposedAccountAdmin()":"1e6b129b","runWaterfall((bytes32,bytes)[],(bytes32,bytes)[][])":"11b4d566","setBufferBalance(uint128)":"0c93d712","setOffChainPendingBalance(uint256)":"e5993b80","setPermissionsRegistry(address)":"33832a6a","tranchedPool()":"1d470c70","updateRoleAddressStatus(bytes32,address,bool)":"1c7ef7f9","updateSelectorApproval(bytes32,address,bytes4,bool)":"d8e13fcd","updateWaterfallConfig((bytes32,bytes)[])":"f32469b4","waterfallConfigurationHash()":"572bbc01"},"id":36}