{"abi":[{"type":"constructor","inputs":[{"name":"initialTranchedPool","type":"address","internalType":"address"}],"stateMutability":"nonpayable"},{"type":"function","name":"acceptAdminRole","inputs":[],"outputs":[],"stateMutability":"nonpayable"},{"type":"function","name":"adminAddress","inputs":[],"outputs":[{"name":"","type":"address","internalType":"address"}],"stateMutability":"view"},{"type":"function","name":"borrowerPermissions","inputs":[{"name":"","type":"address","internalType":"address"}],"outputs":[{"name":"currentBorrowingBase","type":"uint128","internalType":"uint128"},{"name":"stopFunding","type":"bool","internalType":"bool"}],"stateMutability":"view"},{"type":"function","name":"borrowerTranchePermissions","inputs":[{"name":"","type":"address","internalType":"address"},{"name":"","type":"uint256","internalType":"uint256"}],"outputs":[{"name":"minPrincipalRepayment","type":"uint128","internalType":"uint128"}],"stateMutability":"view"},{"type":"function","name":"canBorrow","inputs":[{"name":"amountToBorrow","type":"uint128","internalType":"uint128"},{"name":"totalBorrowed","type":"uint128","internalType":"uint128"},{"name":"borrower","type":"address","internalType":"address"}],"outputs":[{"name":"isBorrowApproved","type":"bool","internalType":"bool"}],"stateMutability":"view"},{"type":"function","name":"canBurn","inputs":[{"name":"borrowerAddress","type":"address","internalType":"address"},{"name":"","type":"bytes32","internalType":"bytes32"},{"name":"","type":"bytes","internalType":"bytes"}],"outputs":[{"name":"isBurnApproved","type":"bool","internalType":"bool"}],"stateMutability":"view"},{"type":"function","name":"canDecreaseCommitment","inputs":[{"name":"trancheId","type":"uint256","internalType":"uint256"},{"name":"lenderAddress","type":"address","internalType":"address"},{"name":"amountToUncommit","type":"uint128","internalType":"uint128"},{"name":"currentCommitment","type":"uint128","internalType":"uint128"}],"outputs":[{"name":"isUncommitApproved","type":"bool","internalType":"bool"}],"stateMutability":"view"},{"type":"function","name":"canDeposit","inputs":[{"name":"","type":"uint256","internalType":"uint256"},{"name":"","type":"address","internalType":"address"},{"name":"","type":"uint128","internalType":"uint128"},{"name":"","type":"uint128","internalType":"uint128"}],"outputs":[{"name":"isDepositApproved","type":"bool","internalType":"bool"}],"stateMutability":"view"},{"type":"function","name":"canIncreaseCommitment","inputs":[{"name":"trancheId","type":"uint256","internalType":"uint256"},{"name":"lenderAddress","type":"address","internalType":"address"},{"name":"amountToCommit","type":"uint128","internalType":"uint128"},{"name":"currentCommitment","type":"uint128","internalType":"uint128"}],"outputs":[{"name":"isCommitApproved","type":"bool","internalType":"bool"}],"stateMutability":"view"},{"type":"function","name":"canRepay","inputs":[{"name":"trancheId","type":"uint256","internalType":"uint256"},{"name":"","type":"uint128","internalType":"uint128"},{"name":"defaultedPrincipalAmount","type":"uint128","internalType":"uint128"},{"name":"nonDefaultedPrincipalAmount","type":"uint128","internalType":"uint128"},{"name":"","type":"uint128","internalType":"uint128"},{"name":"","type":"uint128","internalType":"uint128"},{"name":"","type":"uint128","internalType":"uint128"},{"name":"","type":"uint128","internalType":"uint128"},{"name":"","type":"uint128","internalType":"uint128"},{"name":"","type":"uint128","internalType":"uint128"},{"name":"","type":"uint128","internalType":"uint128"},{"name":"","type":"uint128","internalType":"uint128"},{"name":"repayer","type":"address","internalType":"address"}],"outputs":[{"name":"isRepaymentApproved","type":"bool","internalType":"bool"}],"stateMutability":"view"},{"type":"function","name":"canWithdraw","inputs":[{"name":"trancheId","type":"uint256","internalType":"uint256"},{"name":"caller","type":"address","internalType":"address"},{"name":"","type":"uint128","internalType":"uint128"},{"name":"","type":"uint128","internalType":"uint128"},{"name":"","type":"uint128","internalType":"uint128"},{"name":"","type":"address","internalType":"address"}],"outputs":[{"name":"isWithdrawApproved","type":"bool","internalType":"bool"}],"stateMutability":"view"},{"type":"function","name":"lenderTranchePermissions","inputs":[{"name":"","type":"address","internalType":"address"},{"name":"","type":"uint256","internalType":"uint256"}],"outputs":[{"name":"minAllowedCommitment","type":"uint128","internalType":"uint128"},{"name":"maxAllowedCommitment","type":"uint128","internalType":"uint128"},{"name":"maxAllowedDeposit","type":"uint128","internalType":"uint128"},{"name":"maxAllowedPrincipalWithdrawal","type":"uint128","internalType":"uint128"},{"name":"maxAllowedInterestsWithdrawal","type":"uint128","internalType":"uint128"},{"name":"maxAllowedCommitmentFeesWithdrawal","type":"uint128","internalType":"uint128"}],"stateMutability":"view"},{"type":"function","name":"onchainPaymentReceiverPermissions","inputs":[{"name":"","type":"address","internalType":"address"},{"name":"","type":"address","internalType":"address"}],"outputs":[{"name":"","type":"uint128","internalType":"uint128"}],"stateMutability":"view"},{"type":"function","name":"proposeNewAdminAddress","inputs":[{"name":"newProposedAdmin","type":"address","internalType":"address"}],"outputs":[],"stateMutability":"nonpayable"},{"type":"function","name":"proposedAdminAddress","inputs":[],"outputs":[{"name":"","type":"address","internalType":"address"}],"stateMutability":"view"},{"type":"function","name":"tranchedPool","inputs":[],"outputs":[{"name":"","type":"address","internalType":"contract ITranchedPool"}],"stateMutability":"view"},{"type":"function","name":"updateBorrowerPermissions","inputs":[{"name":"newBorrowerPermissions","type":"tuple","internalType":"struct BorrowerPermissions","components":[{"name":"currentBorrowingBase","type":"uint128","internalType":"uint128"},{"name":"stopFunding","type":"bool","internalType":"bool"}]},{"name":"borrowerToUpdate","type":"address","internalType":"address"}],"outputs":[],"stateMutability":"nonpayable"},{"type":"function","name":"updateBorrowerTranchePermissions","inputs":[{"name":"newBorrowerTranchePermissions","type":"tuple","internalType":"struct BorrowerTranchePermissions","components":[{"name":"minPrincipalRepayment","type":"uint128","internalType":"uint128"}]},{"name":"trancheId","type":"uint256","internalType":"uint256"},{"name":"trancheParams","type":"tuple","internalType":"struct TrancheParams","components":[{"name":"ratesOracle","type":"address","internalType":"address"},{"name":"borrower","type":"address","internalType":"address"},{"name":"token","type":"tuple","internalType":"struct Token","components":[{"name":"tokenAddress","type":"address","internalType":"address"},{"name":"tokenDecimals","type":"uint128","internalType":"uint128"}]},{"name":"tranchePermissionsRegistry","type":"address","internalType":"address"},{"name":"isRemoteCommitment","type":"bool","internalType":"bool"},{"name":"isPIK","type":"bool","internalType":"bool"},{"name":"canBeUpdated","type":"bool","internalType":"bool"},{"name":"minimumUtilisation","type":"uint128","internalType":"uint128"},{"name":"advanceRateLimits","type":"tuple","internalType":"struct AdvanceRateLimits","components":[{"name":"minAdvanceRate","type":"uint128","internalType":"uint128"},{"name":"maxAdvanceRate","type":"uint128","internalType":"uint128"},{"name":"maxAdvanceRateGlobal","type":"uint128","internalType":"uint128"},{"name":"enforceTotalAmount","type":"bool","internalType":"bool"}]}]},{"name":"borrowerToUpdate","type":"address","internalType":"address"}],"outputs":[],"stateMutability":"nonpayable"},{"type":"function","name":"updateCurrentBorrowingBase","inputs":[{"name":"newBorrowingBase","type":"uint128","internalType":"uint128"},{"name":"borrowerToUpdate","type":"address","internalType":"address"}],"outputs":[],"stateMutability":"nonpayable"},{"type":"function","name":"updateLenderTranchePermissions","inputs":[{"name":"newLenderTranchePermissions","type":"tuple","internalType":"struct LenderTranchePermissions","components":[{"name":"minAllowedCommitment","type":"uint128","internalType":"uint128"},{"name":"maxAllowedCommitment","type":"uint128","internalType":"uint128"},{"name":"maxAllowedDeposit","type":"uint128","internalType":"uint128"},{"name":"maxAllowedPrincipalWithdrawal","type":"uint128","internalType":"uint128"},{"name":"maxAllowedInterestsWithdrawal","type":"uint128","internalType":"uint128"},{"name":"maxAllowedCommitmentFeesWithdrawal","type":"uint128","internalType":"uint128"}]},{"name":"trancheId","type":"uint256","internalType":"uint256"},{"name":"trancheParams","type":"tuple","internalType":"struct TrancheParams","components":[{"name":"ratesOracle","type":"address","internalType":"address"},{"name":"borrower","type":"address","internalType":"address"},{"name":"token","type":"tuple","internalType":"struct Token","components":[{"name":"tokenAddress","type":"address","internalType":"address"},{"name":"tokenDecimals","type":"uint128","internalType":"uint128"}]},{"name":"tranchePermissionsRegistry","type":"address","internalType":"address"},{"name":"isRemoteCommitment","type":"bool","internalType":"bool"},{"name":"isPIK","type":"bool","internalType":"bool"},{"name":"canBeUpdated","type":"bool","internalType":"bool"},{"name":"minimumUtilisation","type":"uint128","internalType":"uint128"},{"name":"advanceRateLimits","type":"tuple","internalType":"struct AdvanceRateLimits","components":[{"name":"minAdvanceRate","type":"uint128","internalType":"uint128"},{"name":"maxAdvanceRate","type":"uint128","internalType":"uint128"},{"name":"maxAdvanceRateGlobal","type":"uint128","internalType":"uint128"},{"name":"enforceTotalAmount","type":"bool","internalType":"bool"}]}]},{"name":"lenderToUpdate","type":"address","internalType":"address"}],"outputs":[],"stateMutability":"nonpayable"},{"type":"function","name":"updateOnchainPaymentReceiverStatus","inputs":[{"name":"borrowerToUpdate","type":"address","internalType":"address"},{"name":"receiver","type":"address","internalType":"address"},{"name":"newMaxAmount","type":"uint128","internalType":"uint128"}],"outputs":[],"stateMutability":"nonpayable"}],"bytecode":{"object":"0x60a0346100af57601f61170b38819003918201601f19168301916001600160401b038311848410176100b3578084926020946040528339810103126100af57516001600160a01b038116908190036100af57608052600480546001600160a01b0319163317905560405161164390816100c882396080518181816101ea015281816103ee015281816105e7015281816107ec01528181610bb1015281816110500152818161116001526112150152f35b5f80fd5b634e487b7160e01b5f52604160045260245ffdfe60806040818152600480361015610014575f80fd5b5f92833560e01c9081630652c43d14610be0575080631d470c7014610b9c5780631ec4cc4414610b1b5780632e21496714610ad457806334081139146108385780633738b4031461072d57806348ccc456146106d7578063643fdb8e1461065c578063717505a91461061c57806385b40b16146105c25780638775c382146105005780638c3d7301146104b357806393aec225146104695780639eaaf530146103bf578063aa55ba0d14610372578063af1d04ec14610349578063c6907439146102f5578063d106e0041461023c578063e9e6e950146101b5578063ec1db378146101315763fc6f946814610107575f80fd5b3461012d578260031936011261012d575490516001600160a01b03909116815260209150f35b8280fd5b5050346101b157806003193601126101b15760c09181906001600160a01b03610158610ece565b16815260016020528181206024358252602052208054600260018301549201549183519360018060801b0392838116865260801c60208601528282169085015260801c60608401528116608083015260801c60a0820152f35b5080fd5b5050346101b15780610216916020936101cd36610f10565b6101d997919297610f59565b6001600160a01b03939061021190337f0000000000000000000000000000000000000000000000000000000000000000871614610f76565b610ffe565b95168252600186528282209082528552205460801c90519160018060801b031611158152f35b503461012d57606036600319011261012d57610256610ece565b906001600160401b0390604435908282116102de57366023830112156102de57818101359283116102e25750835190610299601f8401601f191660200183610e23565b82825236602484830101116102de5792856020848198948896602460ff9901848301370101526001600160a01b03168152600285522054915160809290921c16158152f35b8580fd5b634e487b7160e01b865260419052602485fd5b5050346101b157806003193601126101b157602091610312610ece565b61031a610ee4565b6001600160a01b039182168352600385528383209116825283528190205490516001600160801b039091168152f35b5050346101b157816003193601126101b15760055490516001600160a01b039091168152602090f35b5050346101b15760203660031901126101b1579081906001600160a01b03610398610ece565b1681526002602052205460ff82519160018060801b038116835260801c1615156020820152f35b509134610466576103cf36610f10565b6103dd949294939193610f59565b6001600160a01b03919061041590337f0000000000000000000000000000000000000000000000000000000000000000851614610f76565b6001600160801b0394851690851603948486116104535760209750918493918793168252600188528282209082528752205416911610159051908152f35b634e487b7160e01b845260118852602484fd5b80fd5b5050346101b157806003193601126101b1576020916001600160a01b0361048e610ece565b168152808352818120602435825283528190205490516001600160801b039091168152f35b8382346101b157816003193601126101b1576005546001600160a01b038116916104e66104de610f59565b843314610f76565b80546001600160a01b031990811690931790551660055580f35b503461012d573660031901606081126105be57821361012d5781519161052583610dbd565b61052d610e46565b83526024359182151583036105ba576020840192835261054b610efa565b90546001600160a01b0391908216331480156105af575b6105749061056e610f59565b90610f76565b168452600260205283209151825491516001600160881b03199092166001600160801b03919091161790151560801b60ff60801b1617905580f35b503381831614610562565b8480fd5b8380fd5b5050346101b1576020906105d536610f10565b505050506106156105e4610f59565b337f00000000000000000000000000000000000000000000000000000000000000006001600160a01b031614610f76565b5160018152f35b5050346101b15760603660031901126101b15760209061065361063d610e46565b610645610e76565b61064d610efa565b91611145565b90519015158152f35b50903461012d578060031936011261012d57610676610e46565b9161067f610ee4565b90546001600160a01b0391908216331480156106cc575b6106a29061056e610f59565b1683526002602052822080546001600160801b0319166001600160801b0390921691909117905580f35b503381831614610696565b503461012d5760c036600319011261012d576106f1610ee4565b926106fa610e60565b50610703610e8c565b5061070c610ea2565b5060a4356001600160a01b038116036104665750602092610653913561103f565b503461012d576101a036600319011261012d57610748610e76565b50610751610e60565b9061075a610e8c565b610762610ea2565b5061076b610eb8565b506001600160801b039160c435838116036102de5760e435838116036102de5761010435838116036102de5761012435838116036102de5761014435838116036102de5761016435838116036102de57610184356001600160a01b03818116918290036108345760209761082a949386936108138a946107e9610f59565b907f0000000000000000000000000000000000000000000000000000000000000000163314610f76565b8252818a5282822090358252895220541693610ffe565b1610159051908152f35b8780fd5b503461012d5736600319016102a081126105be5760c01361012d57815160c081016001600160401b03811182821017610ac1578352610875610e46565b815261087f610e76565b9160209283830190815285610892610e60565b928685019384526108a1610e8c565b94606081019586526108b1610ea2565b96608082019788526108c1610eb8565b60a083019081529560c435936101a03660e31901126102de578a51986108e68a610dec565b6001600160a01b039160e4358381168103610abd578b52610104358381168103610abd57858c01528c61012319360112610834578c519a6109268c610dbd565b610124358481168103610ab5578c526001600160801b039b610144358d81168103610ab95781880152818f0152610164358481168103610ab5576060820152610184358015158103610ab55760808201526101a4358015158103610ab55760a08201526101c4358015158103610ab55760c08201526101e4358c81168103610ab55760e0820152608036610203190112610abd578d516109c581610e08565b610204358d81168103610ab9578152610224358d81168103610ab95787820152610244358d81168103610ab9578f820152610264358015158103610ab95760608201526101008201526102843593808516809503610ab557610aa09e8d9a60029a610a8d998d98610a4c8a978897610a769a54163314908115610aa3575b5061056e610f59565b83526001815283832091835252209751169960018060801b03199a8b895416178855511686610fdb565b816001860193511688845416178355511690610fdb565b0194511690845416178355511690610fdb565b80f35b610aaf915085336111ec565b5f610a43565b8980fd5b8a80fd5b8880fd5b634e487b7160e01b855260418352602485fd5b8382346101b15760203660031901126101b157610aef610ece565b610b0760018060a01b0380935416331461056e610f59565b1660018060a01b0319600554161760055580f35b5050346101b15760603660031901126101b157610b36610ece565b90610b3f610ee4565b610b47610e60565b926001600160a01b03908116610b66610b5e610f59565b823314610f76565b8552600360209081528386209190921685529052822080546001600160801b0319166001600160801b0390921691909117905580f35b5050346101b157816003193601126101b157517f00000000000000000000000000000000000000000000000000000000000000006001600160a01b03168152602090f35b929050346105be57366003190161020081126105ba5760208091126105ba578381016001600160401b03811185821017610daa578252610c1e610e46565b8452602435906101a03660431901126102de57825193610c3d85610dec565b6001600160a01b03906044358281168103610abd5786526064358281168103610abd57838701528460831936011261083457845195610c7b87610dbd565b6084358381168103610ab55787526001600160801b039660a4358881168103610ab957858201528682015260c4358381168103610ab557606082015260e4358015158103610ab5576080820152610104358015158103610ab55760a0820152610124358015158103610ab55760c0820152610144358781168103610ab55760e0820152608036610163190112610abd578551610d1681610e08565b610164358881168103610ab9578152610184358881168103610ab957858201526101a4358881168103610ab957878201526101c4358015158103610ab95760608201526101008201526101e43592808416809403610ab557610d869254163314908115610aa3575061056e610f59565b8652858152828620918652528320915182546001600160801b031916911617905580f35b634e487b7160e01b865260418452602486fd5b604081019081106001600160401b03821117610dd857604052565b634e487b7160e01b5f52604160045260245ffd5b61012081019081106001600160401b03821117610dd857604052565b608081019081106001600160401b03821117610dd857604052565b601f909101601f19168101906001600160401b03821190821017610dd857604052565b600435906001600160801b0382168203610e5c57565b5f80fd5b604435906001600160801b0382168203610e5c57565b602435906001600160801b0382168203610e5c57565b606435906001600160801b0382168203610e5c57565b608435906001600160801b0382168203610e5c57565b60a435906001600160801b0382168203610e5c57565b600435906001600160a01b0382168203610e5c57565b602435906001600160a01b0382168203610e5c57565b604435906001600160a01b0382168203610e5c57565b6080906003190112610e5c57600435906024356001600160a01b0381168103610e5c57906001600160801b03906044358281168103610e5c57916064359081168103610e5c5790565b60405190610f6682610dbd565b60018252603560f81b6020830152565b15610f7e5750565b6040519062461bcd60e51b82528160208060048301528251908160248401525f935b828510610fc2575050604492505f838284010152601f80199101168101030190fd5b8481018201518686016044015293810193859350610fa0565b80546001600160801b031660809290921b6001600160801b031916919091179055565b6001600160801b03918216908216019190821161101757565b634e487b7160e01b5f52601160045260245ffd5b51906001600160801b0382168203610e5c57565b6001600160a01b039160c0916044907f0000000000000000000000000000000000000000000000000000000000000000851661107c610b5e610f59565b6040519586948593634857457360e01b855260048501521660248301525afa90811561113a575f916110c0575b506001600160801b03166110bb575f90565b600190565b9060c0823d8211611132575b816110d960c09383610e23565b8101031261046657506110eb8161102b565b5061112b60a06110fd6020840161102b565b9261110a6040820161102b565b506111176060820161102b565b506111246080820161102b565b500161102b565b505f6110a9565b3d91506110cc565b6040513d5f823e3d90fd5b909161114f610f59565b6001600160a01b03919061118790337f0000000000000000000000000000000000000000000000000000000000000000851614610f76565b165f52600260205260405f2091604051926111a184610dbd565b549160ff60018060801b0393848116865260801c1615158060208601526111d75782916111cd91610ffe565b9251169116111590565b505050505f90565b51908115158203610e5c57565b604080516313612cb160e11b8152600481019390935290916001600160a01b03915f80836024817f000000000000000000000000000000000000000000000000000000000000000088165afa928315611601578193611345575b50815190602082019285885116845260606020808a0199888b51168487015283810151898151168488015260018060801b03928391015116608087015288838201511660a08701526080810151151560c087015260a0810151151560e087015260c081015115159061010091828801528260e08201511661012088015201519080825116610140870152806020830151166101608701528382015116610180860152015115156101a0908185015283526101c083019183831060018060401b03841117611331575052519020149283611320575b50505090565b8192935051169116145f808061131a565b634e487b7160e01b81526041600452602490fd5b9092503d8084833e6113578183610e23565b81018181036102c081126105ba5782519260209061137682820161102b565b5061138286820161102b565b5060609261139184830161102b565b506080916113a083820161102b565b506113ad60a0820161102b565b506113ba60c0820161102b565b506113c760e0820161102b565b50610100916113d783830161102b565b506101206113e681840161102b565b5061014080926113f782860161102b565b5061015f190112610ab95789516001600160401b039490928301858111848210176115ed578b5261142b610160850161102b565b835261143a610180850161102b565b8784015261144b6101a0850161102b565b8b84015261145c6101c0850161102b565b8884015261146d6101e0850161102b565b8684015261147e610200850161102b565b60a0840152611490610220850161102b565b60c08401526114a2610240850161102b565b60e08401526114b4610260850161102b565b908301526114c5610280840161102b565b9101526102a081015190828211610ab55701928284870312610abd578751936114ed85610e08565b6114f68161102b565b855261150382820161102b565b8286015261151289820161102b565b898601528581015190838211610ab957019186601f84011215610ab55782519081116115d95788519661154a838360051b0189610e23565b818852828089019260071b850101938185116115d5578301915b84831061157a575050505050500152915f611246565b85838303126115d5578386918c5161159181610e08565b61159a8661102b565b81526115a783870161102b565b838201528d6115b78188016111df565b908201526115c68b87016111df565b8b820152815201920191611564565b8b80fd5b634e487b7160e01b8a52604160045260248afd5b634e487b7160e01b8d52604160045260248dfd5b509051903d90823e3d90fdfea2646970667358221220b3ef0111ba35d29c854b97bb5c02c277864e0e6c0ae8477b2fe1654ff109bafd64736f6c63430008140033","linkReferences":{}},"methodIdentifiers":{"acceptAdminRole()":"8c3d7301","adminAddress()":"fc6f9468","borrowerPermissions(address)":"aa55ba0d","borrowerTranchePermissions(address,uint256)":"93aec225","canBorrow(uint128,uint128,address)":"717505a9","canBurn(address,bytes32,bytes)":"d106e004","canDecreaseCommitment(uint256,address,uint128,uint128)":"9eaaf530","canDeposit(uint256,address,uint128,uint128)":"85b40b16","canIncreaseCommitment(uint256,address,uint128,uint128)":"e9e6e950","canRepay(uint256,uint128,uint128,uint128,uint128,uint128,uint128,uint128,uint128,uint128,uint128,uint128,address)":"3738b403","canWithdraw(uint256,address,uint128,uint128,uint128,address)":"48ccc456","lenderTranchePermissions(address,uint256)":"ec1db378","onchainPaymentReceiverPermissions(address,address)":"c6907439","proposeNewAdminAddress(address)":"2e214967","proposedAdminAddress()":"af1d04ec","tranchedPool()":"1d470c70","updateBorrowerPermissions((uint128,bool),address)":"8775c382","updateBorrowerTranchePermissions((uint128),uint256,(address,address,(address,uint128),address,bool,bool,bool,uint128,(uint128,uint128,uint128,bool)),address)":"0652c43d","updateCurrentBorrowingBase(uint128,address)":"643fdb8e","updateLenderTranchePermissions((uint128,uint128,uint128,uint128,uint128,uint128),uint256,(address,address,(address,uint128),address,bool,bool,bool,uint128,(uint128,uint128,uint128,bool)),address)":"34081139","updateOnchainPaymentReceiverStatus(address,address,uint128)":"1ec4cc44"},"id":32}