{"abi":[{"type":"constructor","inputs":[{"name":"initialOracleManager","type":"address","internalType":"address"}],"stateMutability":"nonpayable"},{"type":"function","name":"ADMIN_ROLE","inputs":[],"outputs":[{"name":"","type":"bytes32","internalType":"bytes32"}],"stateMutability":"view"},{"type":"function","name":"UPDATER_ROLE","inputs":[],"outputs":[{"name":"","type":"bytes32","internalType":"bytes32"}],"stateMutability":"view"},{"type":"function","name":"acceptOracleManager","inputs":[],"outputs":[],"stateMutability":"nonpayable"},{"type":"function","name":"approvedOperationalAddresses","inputs":[{"name":"","type":"address","internalType":"address"}],"outputs":[{"name":"","type":"bool","internalType":"bool"}],"stateMutability":"view"},{"type":"function","name":"getLatestTrancheRates","inputs":[{"name":"tranchedPool","type":"address","internalType":"address"},{"name":"trancheId","type":"uint256","internalType":"uint256"}],"outputs":[{"name":"latestRates","type":"tuple","internalType":"struct Rates","components":[{"name":"depositInterestRatePerSecond","type":"uint128","internalType":"uint128"},{"name":"interestRatePerSecond","type":"uint128","internalType":"uint128"},{"name":"commitmentFeePerSecond","type":"uint128","internalType":"uint128"},{"name":"defaultRatePerSecond","type":"uint128","internalType":"uint128"},{"name":"protocolFeesPerSecond","type":"uint128","internalType":"uint128"}]}],"stateMutability":"view"},{"type":"function","name":"latestTrancheRates","inputs":[{"name":"","type":"address","internalType":"address"},{"name":"","type":"uint256","internalType":"uint256"}],"outputs":[{"name":"depositInterestRatePerSecond","type":"uint128","internalType":"uint128"},{"name":"interestRatePerSecond","type":"uint128","internalType":"uint128"},{"name":"commitmentFeePerSecond","type":"uint128","internalType":"uint128"},{"name":"defaultRatePerSecond","type":"uint128","internalType":"uint128"},{"name":"protocolFeesPerSecond","type":"uint128","internalType":"uint128"}],"stateMutability":"view"},{"type":"function","name":"oracleManager","inputs":[],"outputs":[{"name":"","type":"address","internalType":"address"}],"stateMutability":"view"},{"type":"function","name":"proposeNewOracleManager","inputs":[{"name":"newOracleManager","type":"address","internalType":"address"}],"outputs":[],"stateMutability":"nonpayable"},{"type":"function","name":"proposedOracleManager","inputs":[],"outputs":[{"name":"","type":"address","internalType":"address"}],"stateMutability":"view"},{"type":"function","name":"updateLatestTrancheRates","inputs":[{"name":"tranchedPool","type":"address","internalType":"address"},{"name":"trancheId","type":"uint256","internalType":"uint256"},{"name":"newRates","type":"tuple","internalType":"struct Rates","components":[{"name":"depositInterestRatePerSecond","type":"uint128","internalType":"uint128"},{"name":"interestRatePerSecond","type":"uint128","internalType":"uint128"},{"name":"commitmentFeePerSecond","type":"uint128","internalType":"uint128"},{"name":"defaultRatePerSecond","type":"uint128","internalType":"uint128"},{"name":"protocolFeesPerSecond","type":"uint128","internalType":"uint128"}]}],"outputs":[],"stateMutability":"nonpayable"},{"type":"function","name":"updateOpsAddressStatus","inputs":[{"name":"opsAddress","type":"address","internalType":"address"},{"name":"newStatus","type":"bool","internalType":"bool"}],"outputs":[],"stateMutability":"nonpayable"}],"bytecode":{"object":"0x60803461007357601f61073d38819003918201601f19168301916001600160401b038311848410176100775780849260209460405283398101031261007357516001600160a01b03811690819003610073575f80546001600160a01b0319169190911790556040516106b1908161008c8239f35b5f80fd5b634e487b7160e01b5f52604160045260245ffdfe6040608081526004361015610012575f80fd5b5f90813560e01c9081630c4b5a03146104ca578163109269891461048c57816347e6338014610451578163565d878c1461042957816365978c24146103af57816370b86b8f1461029757816375b238fc1461025c578163772fca3e146101e657816398d7bf57146101bd578163e44d0797146100f0575063f88a62b614610097575f80fd5b346100ed57806003193601126100ed576001546100d46100b561057e565b60018152603560f81b6020820152336001600160a01b0384161461059d565b81546001600160a01b0319908116331783551660015580f35b80fd5b9050346101b957806003193601126101b9578060a09261010e610531565b81608061011961054b565b82815282602082015282868201528260608201520152600180861b0316815260036020528181206024358252602052209061015261054b565b82549160018060801b039283918280831696878652602086019360801c8452816001820154946080826002878b0195828a16875260608c0199841c8a5201541698019788528451998a52511660208901525116908601525116606084015251166080820152f35b5080fd5b9050346101b957816003193601126101b95760015490516001600160a01b039091168152602090f35b9050346101b957806003193601126101b957610200610531565b90602435918215158093036102585761023761021b33610602565b61022361057e565b9060018252603560f81b602083015261059d565b60018060a01b03168352600260205282209060ff8019835416911617905580f35b8380fd5b9050346101b957816003193601126101b957602090517fa49807205ce4d355092ef5a8a18f56e8913cf4a201fbe287825b095693c217758152f35b9050346101b95760e03660031901126101b9576102b2610531565b9060a03660431901126103a7576102c761054b565b906001600160801b039060443582811681036103ab5783526064359282841684036103ab57602081019384528560843584811681036101b95783830190815260a4359685881688036103a7576060840197885260c43597868916890361025857610382878060029861039997829660808b019e8f5261034861021b3361061f565b60018060a01b0316905260036020528d8181209060243590526020528d209751169960018060801b03199a8b895416178855511686610658565b816001860193511688845416178355511690610658565b019251169082541617905580f35b8280fd5b8580fd5b9050346101b957806003193601126101b95760a09160029082906001600160a01b036103d9610531565b168152600360205281812060243582526020522080549260018201549160018060801b0393849101541692815194818116865260801c602086015282169084015260801c60608301526080820152f35b9050346101b957816003193601126101b957905490516001600160a01b039091168152602090f35b9050346101b957816003193601126101b957602090517f73e573f9566d61418a34d5de3ff49360f9c51fec37f7486551670290f6285dab8152f35b9050346101b95760203660031901126101b95760209160ff9082906001600160a01b036104b7610531565b1681526002855220541690519015158152f35b82346100ed5760203660031901126100ed576104e4610531565b6104f061021b33610602565b6001600160a01b031661051a61050461057e565b60018152601960f91b602082015282151561059d565b600180546001600160a01b03191691909117905580f35b600435906001600160a01b038216820361054757565b5f80fd5b6040519060a082016001600160401b0381118382101761056a57604052565b634e487b7160e01b5f52604160045260245ffd5b60408051919082016001600160401b0381118382101761056a57604052565b156105a55750565b6040519062461bcd60e51b82528160208060048301528251908160248401525f935b8285106105e9575050604492505f838284010152601f80199101168101030190fd5b84810182015186860160440152938101938593506105c7565b5f546001600160a01b0391821691161461061a575f90565b600190565b5f546001600160a01b0391821691168114908115610641575b5061061a575f90565b90505f52600260205260ff60405f2054165f610638565b80546001600160801b031660809290921b6001600160801b03191691909117905556fea2646970667358221220c259aff143495dc5e252333a3c65043ab6c92e91e91c5868b9a689db2bccb96164736f6c63430008140033","linkReferences":{}},"methodIdentifiers":{"ADMIN_ROLE()":"75b238fc","UPDATER_ROLE()":"47e63380","acceptOracleManager()":"f88a62b6","approvedOperationalAddresses(address)":"10926989","getLatestTrancheRates(address,uint256)":"e44d0797","latestTrancheRates(address,uint256)":"65978c24","oracleManager()":"565d878c","proposeNewOracleManager(address)":"0c4b5a03","proposedOracleManager()":"98d7bf57","updateLatestTrancheRates(address,uint256,(uint128,uint128,uint128,uint128,uint128))":"70b86b8f","updateOpsAddressStatus(address,bool)":"772fca3e"},"id":39}