{"abi":[{"type":"constructor","inputs":[{"name":"initialProtocolFeesClaimer","type":"address","internalType":"address"}],"stateMutability":"nonpayable"},{"type":"function","name":"MAX_PAYMENTS_ARRAY_SIZE","inputs":[],"outputs":[{"name":"","type":"uint256","internalType":"uint256"}],"stateMutability":"view"},{"type":"function","name":"acceptProtocolFeesAddress","inputs":[],"outputs":[],"stateMutability":"nonpayable"},{"type":"function","name":"accrueTrancheInterestAndCommitmentFees","inputs":[{"name":"trancheId","type":"uint256","internalType":"uint256"},{"name":"trancheParams","type":"tuple","internalType":"struct TrancheParams","components":[{"name":"ratesOracle","type":"address","internalType":"address"},{"name":"borrower","type":"address","internalType":"address"},{"name":"token","type":"tuple","internalType":"struct Token","components":[{"name":"tokenAddress","type":"address","internalType":"address"},{"name":"tokenDecimals","type":"uint128","internalType":"uint128"}]},{"name":"tranchePermissionsRegistry","type":"address","internalType":"address"},{"name":"isRemoteCommitment","type":"bool","internalType":"bool"},{"name":"isPIK","type":"bool","internalType":"bool"},{"name":"canBeUpdated","type":"bool","internalType":"bool"},{"name":"minimumUtilisation","type":"uint128","internalType":"uint128"},{"name":"advanceRateLimits","type":"tuple","internalType":"struct AdvanceRateLimits","components":[{"name":"minAdvanceRate","type":"uint128","internalType":"uint128"},{"name":"maxAdvanceRate","type":"uint128","internalType":"uint128"},{"name":"maxAdvanceRateGlobal","type":"uint128","internalType":"uint128"},{"name":"enforceTotalAmount","type":"bool","internalType":"bool"}]}]}],"outputs":[{"name":"currentTime","type":"uint128","internalType":"uint128"},{"name":"trancheAccrualsCache","type":"tuple","internalType":"struct TrancheAccruals","components":[{"name":"defaultedInterests","type":"uint128","internalType":"uint128"},{"name":"defaultedCommitmentFees","type":"uint128","internalType":"uint128"},{"name":"defaultedPrincipal","type":"uint128","internalType":"uint128"},{"name":"nonDefaultedInterests","type":"uint128","internalType":"uint128"},{"name":"nonDefaultedCommitmentFees","type":"uint128","internalType":"uint128"},{"name":"interestsFromDefaultedCommitmentFees","type":"uint128","internalType":"uint128"},{"name":"interestsFromDefaultedInterests","type":"uint128","internalType":"uint128"},{"name":"capitalizedCommitmentFees","type":"uint128","internalType":"uint128"},{"name":"capitalizedInterests","type":"uint128","internalType":"uint128"},{"name":"protocolFees","type":"uint128","internalType":"uint128"}]},{"name":"totalBorrowedCache","type":"uint128","internalType":"uint128"},{"name":"totalDepositedCache","type":"uint128","internalType":"uint128"},{"name":"trancheScheduleCache","type":"tuple","internalType":"struct RepaymentSchedule","components":[{"name":"lastRecurringPaymentDate","type":"uint128","internalType":"uint128"},{"name":"repaymentDaysInMonth","type":"uint128","internalType":"uint128"},{"name":"repaymentPeriodInMonths","type":"uint128","internalType":"uint128"},{"name":"manualRepayments","type":"tuple[]","internalType":"struct ExpectedRepayment[]","components":[{"name":"dueDate","type":"uint128","internalType":"uint128"},{"name":"principalDue","type":"uint128","internalType":"uint128"},{"name":"interestsDue","type":"bool","internalType":"bool"},{"name":"isDefaulted","type":"bool","internalType":"bool"}]}]}],"stateMutability":"view"},{"type":"function","name":"accrueTranches","inputs":[{"name":"trancheIDs","type":"uint256[]","internalType":"uint256[]"},{"name":"tranchesToAccrue","type":"tuple[]","internalType":"struct TrancheParams[]","components":[{"name":"ratesOracle","type":"address","internalType":"address"},{"name":"borrower","type":"address","internalType":"address"},{"name":"token","type":"tuple","internalType":"struct Token","components":[{"name":"tokenAddress","type":"address","internalType":"address"},{"name":"tokenDecimals","type":"uint128","internalType":"uint128"}]},{"name":"tranchePermissionsRegistry","type":"address","internalType":"address"},{"name":"isRemoteCommitment","type":"bool","internalType":"bool"},{"name":"isPIK","type":"bool","internalType":"bool"},{"name":"canBeUpdated","type":"bool","internalType":"bool"},{"name":"minimumUtilisation","type":"uint128","internalType":"uint128"},{"name":"advanceRateLimits","type":"tuple","internalType":"struct AdvanceRateLimits","components":[{"name":"minAdvanceRate","type":"uint128","internalType":"uint128"},{"name":"maxAdvanceRate","type":"uint128","internalType":"uint128"},{"name":"maxAdvanceRateGlobal","type":"uint128","internalType":"uint128"},{"name":"enforceTotalAmount","type":"bool","internalType":"bool"}]}]}],"outputs":[],"stateMutability":"nonpayable"},{"type":"function","name":"addNewTranche","inputs":[{"name":"trancheParams","type":"tuple","internalType":"struct TrancheParams","components":[{"name":"ratesOracle","type":"address","internalType":"address"},{"name":"borrower","type":"address","internalType":"address"},{"name":"token","type":"tuple","internalType":"struct Token","components":[{"name":"tokenAddress","type":"address","internalType":"address"},{"name":"tokenDecimals","type":"uint128","internalType":"uint128"}]},{"name":"tranchePermissionsRegistry","type":"address","internalType":"address"},{"name":"isRemoteCommitment","type":"bool","internalType":"bool"},{"name":"isPIK","type":"bool","internalType":"bool"},{"name":"canBeUpdated","type":"bool","internalType":"bool"},{"name":"minimumUtilisation","type":"uint128","internalType":"uint128"},{"name":"advanceRateLimits","type":"tuple","internalType":"struct AdvanceRateLimits","components":[{"name":"minAdvanceRate","type":"uint128","internalType":"uint128"},{"name":"maxAdvanceRate","type":"uint128","internalType":"uint128"},{"name":"maxAdvanceRateGlobal","type":"uint128","internalType":"uint128"},{"name":"enforceTotalAmount","type":"bool","internalType":"bool"}]}]},{"name":"firstExpectedRecurringRepaymentDate","type":"uint128","internalType":"uint128"},{"name":"lastExpectedRecurringRepaymentDate","type":"uint128","internalType":"uint128"},{"name":"trancheSchedule","type":"tuple","internalType":"struct RepaymentSchedule","components":[{"name":"lastRecurringPaymentDate","type":"uint128","internalType":"uint128"},{"name":"repaymentDaysInMonth","type":"uint128","internalType":"uint128"},{"name":"repaymentPeriodInMonths","type":"uint128","internalType":"uint128"},{"name":"manualRepayments","type":"tuple[]","internalType":"struct ExpectedRepayment[]","components":[{"name":"dueDate","type":"uint128","internalType":"uint128"},{"name":"principalDue","type":"uint128","internalType":"uint128"},{"name":"interestsDue","type":"bool","internalType":"bool"},{"name":"isDefaulted","type":"bool","internalType":"bool"}]}]}],"outputs":[],"stateMutability":"nonpayable"},{"type":"function","name":"addOrUpdateExpectedRepayment","inputs":[{"name":"trancheParams","type":"tuple","internalType":"struct TrancheParams","components":[{"name":"ratesOracle","type":"address","internalType":"address"},{"name":"borrower","type":"address","internalType":"address"},{"name":"token","type":"tuple","internalType":"struct Token","components":[{"name":"tokenAddress","type":"address","internalType":"address"},{"name":"tokenDecimals","type":"uint128","internalType":"uint128"}]},{"name":"tranchePermissionsRegistry","type":"address","internalType":"address"},{"name":"isRemoteCommitment","type":"bool","internalType":"bool"},{"name":"isPIK","type":"bool","internalType":"bool"},{"name":"canBeUpdated","type":"bool","internalType":"bool"},{"name":"minimumUtilisation","type":"uint128","internalType":"uint128"},{"name":"advanceRateLimits","type":"tuple","internalType":"struct AdvanceRateLimits","components":[{"name":"minAdvanceRate","type":"uint128","internalType":"uint128"},{"name":"maxAdvanceRate","type":"uint128","internalType":"uint128"},{"name":"maxAdvanceRateGlobal","type":"uint128","internalType":"uint128"},{"name":"enforceTotalAmount","type":"bool","internalType":"bool"}]}]},{"name":"trancheId","type":"uint256","internalType":"uint256"},{"name":"newExpectedRepayment","type":"tuple","internalType":"struct ExpectedRepayment","components":[{"name":"dueDate","type":"uint128","internalType":"uint128"},{"name":"principalDue","type":"uint128","internalType":"uint128"},{"name":"interestsDue","type":"bool","internalType":"bool"},{"name":"isDefaulted","type":"bool","internalType":"bool"}]}],"outputs":[],"stateMutability":"nonpayable"},{"type":"function","name":"borrow","inputs":[{"name":"amount","type":"uint128","internalType":"uint128"},{"name":"trancheParams","type":"tuple[]","internalType":"struct TrancheParams[]","components":[{"name":"ratesOracle","type":"address","internalType":"address"},{"name":"borrower","type":"address","internalType":"address"},{"name":"token","type":"tuple","internalType":"struct Token","components":[{"name":"tokenAddress","type":"address","internalType":"address"},{"name":"tokenDecimals","type":"uint128","internalType":"uint128"}]},{"name":"tranchePermissionsRegistry","type":"address","internalType":"address"},{"name":"isRemoteCommitment","type":"bool","internalType":"bool"},{"name":"isPIK","type":"bool","internalType":"bool"},{"name":"canBeUpdated","type":"bool","internalType":"bool"},{"name":"minimumUtilisation","type":"uint128","internalType":"uint128"},{"name":"advanceRateLimits","type":"tuple","internalType":"struct AdvanceRateLimits","components":[{"name":"minAdvanceRate","type":"uint128","internalType":"uint128"},{"name":"maxAdvanceRate","type":"uint128","internalType":"uint128"},{"name":"maxAdvanceRateGlobal","type":"uint128","internalType":"uint128"},{"name":"enforceTotalAmount","type":"bool","internalType":"bool"}]}]},{"name":"tokenToBorrow","type":"address","internalType":"address"},{"name":"trancheIds","type":"uint256[]","internalType":"uint256[]"},{"name":"advanceRates","type":"uint128[]","internalType":"uint128[]"},{"name":"permissionsRegistry","type":"address","internalType":"address"},{"name":"receiver","type":"address","internalType":"address"}],"outputs":[{"name":"amountToSend","type":"uint128","internalType":"uint128"}],"stateMutability":"nonpayable"},{"type":"function","name":"claimProtocolFees","inputs":[{"name":"token","type":"address","internalType":"address"},{"name":"amount","type":"uint128","internalType":"uint128"},{"name":"receiver","type":"address","internalType":"address"}],"outputs":[],"stateMutability":"nonpayable"},{"type":"function","name":"decreaseCommitment","inputs":[{"name":"trancheId","type":"uint256","internalType":"uint256"},{"name":"trancheParams","type":"tuple","internalType":"struct TrancheParams","components":[{"name":"ratesOracle","type":"address","internalType":"address"},{"name":"borrower","type":"address","internalType":"address"},{"name":"token","type":"tuple","internalType":"struct Token","components":[{"name":"tokenAddress","type":"address","internalType":"address"},{"name":"tokenDecimals","type":"uint128","internalType":"uint128"}]},{"name":"tranchePermissionsRegistry","type":"address","internalType":"address"},{"name":"isRemoteCommitment","type":"bool","internalType":"bool"},{"name":"isPIK","type":"bool","internalType":"bool"},{"name":"canBeUpdated","type":"bool","internalType":"bool"},{"name":"minimumUtilisation","type":"uint128","internalType":"uint128"},{"name":"advanceRateLimits","type":"tuple","internalType":"struct AdvanceRateLimits","components":[{"name":"minAdvanceRate","type":"uint128","internalType":"uint128"},{"name":"maxAdvanceRate","type":"uint128","internalType":"uint128"},{"name":"maxAdvanceRateGlobal","type":"uint128","internalType":"uint128"},{"name":"enforceTotalAmount","type":"bool","internalType":"bool"}]}]},{"name":"amountToDecrease","type":"uint128","internalType":"uint128"}],"outputs":[],"stateMutability":"nonpayable"},{"type":"function","name":"externalSLOADs","inputs":[{"name":"slots","type":"bytes32[]","internalType":"bytes32[]"}],"outputs":[{"name":"res","type":"bytes32[]","internalType":"bytes32[]"}],"stateMutability":"view"},{"type":"function","name":"increaseCommitment","inputs":[{"name":"trancheId","type":"uint256","internalType":"uint256"},{"name":"trancheParams","type":"tuple","internalType":"struct TrancheParams","components":[{"name":"ratesOracle","type":"address","internalType":"address"},{"name":"borrower","type":"address","internalType":"address"},{"name":"token","type":"tuple","internalType":"struct Token","components":[{"name":"tokenAddress","type":"address","internalType":"address"},{"name":"tokenDecimals","type":"uint128","internalType":"uint128"}]},{"name":"tranchePermissionsRegistry","type":"address","internalType":"address"},{"name":"isRemoteCommitment","type":"bool","internalType":"bool"},{"name":"isPIK","type":"bool","internalType":"bool"},{"name":"canBeUpdated","type":"bool","internalType":"bool"},{"name":"minimumUtilisation","type":"uint128","internalType":"uint128"},{"name":"advanceRateLimits","type":"tuple","internalType":"struct AdvanceRateLimits","components":[{"name":"minAdvanceRate","type":"uint128","internalType":"uint128"},{"name":"maxAdvanceRate","type":"uint128","internalType":"uint128"},{"name":"maxAdvanceRateGlobal","type":"uint128","internalType":"uint128"},{"name":"enforceTotalAmount","type":"bool","internalType":"bool"}]}]},{"name":"assets","type":"uint128","internalType":"uint128"}],"outputs":[],"stateMutability":"nonpayable"},{"type":"function","name":"lenderPositionEarnedInterestsAndCommitmentFees","inputs":[{"name":"lenderPosition","type":"tuple","internalType":"struct LenderPosition","components":[{"name":"deposited","type":"uint128","internalType":"uint128"},{"name":"committed","type":"uint128","internalType":"uint128"},{"name":"interestPerTokenDeposited","type":"uint128","internalType":"uint128"},{"name":"interestEarned","type":"uint128","internalType":"uint128"},{"name":"CFPerTokenDeposited","type":"uint128","internalType":"uint128"},{"name":"CFEarned","type":"uint128","internalType":"uint128"}]},{"name":"trancheId","type":"uint256","internalType":"uint256"},{"name":"trancheParams","type":"tuple","internalType":"struct TrancheParams","components":[{"name":"ratesOracle","type":"address","internalType":"address"},{"name":"borrower","type":"address","internalType":"address"},{"name":"token","type":"tuple","internalType":"struct Token","components":[{"name":"tokenAddress","type":"address","internalType":"address"},{"name":"tokenDecimals","type":"uint128","internalType":"uint128"}]},{"name":"tranchePermissionsRegistry","type":"address","internalType":"address"},{"name":"isRemoteCommitment","type":"bool","internalType":"bool"},{"name":"isPIK","type":"bool","internalType":"bool"},{"name":"canBeUpdated","type":"bool","internalType":"bool"},{"name":"minimumUtilisation","type":"uint128","internalType":"uint128"},{"name":"advanceRateLimits","type":"tuple","internalType":"struct AdvanceRateLimits","components":[{"name":"minAdvanceRate","type":"uint128","internalType":"uint128"},{"name":"maxAdvanceRate","type":"uint128","internalType":"uint128"},{"name":"maxAdvanceRateGlobal","type":"uint128","internalType":"uint128"},{"name":"enforceTotalAmount","type":"bool","internalType":"bool"}]}]}],"outputs":[{"name":"earnedInterests","type":"uint128","internalType":"uint128"},{"name":"earnedCommitmentFees","type":"uint128","internalType":"uint128"}],"stateMutability":"view"},{"type":"function","name":"nTranches","inputs":[],"outputs":[{"name":"","type":"uint256","internalType":"uint256"}],"stateMutability":"view"},{"type":"function","name":"proposeNewProtocolFeesAddress","inputs":[{"name":"newProtocolFeesClaimer","type":"address","internalType":"address"}],"outputs":[],"stateMutability":"nonpayable"},{"type":"function","name":"proposedProtocolFeesClaimer","inputs":[],"outputs":[{"name":"","type":"address","internalType":"address"}],"stateMutability":"view"},{"type":"function","name":"protocolFeesAvailableToWithdraw","inputs":[{"name":"","type":"address","internalType":"address"}],"outputs":[{"name":"","type":"uint128","internalType":"uint128"}],"stateMutability":"view"},{"type":"function","name":"protocolFeesClaimer","inputs":[],"outputs":[{"name":"","type":"address","internalType":"address"}],"stateMutability":"view"},{"type":"function","name":"removeExpectedPayment","inputs":[{"name":"trancheParams","type":"tuple","internalType":"struct TrancheParams","components":[{"name":"ratesOracle","type":"address","internalType":"address"},{"name":"borrower","type":"address","internalType":"address"},{"name":"token","type":"tuple","internalType":"struct Token","components":[{"name":"tokenAddress","type":"address","internalType":"address"},{"name":"tokenDecimals","type":"uint128","internalType":"uint128"}]},{"name":"tranchePermissionsRegistry","type":"address","internalType":"address"},{"name":"isRemoteCommitment","type":"bool","internalType":"bool"},{"name":"isPIK","type":"bool","internalType":"bool"},{"name":"canBeUpdated","type":"bool","internalType":"bool"},{"name":"minimumUtilisation","type":"uint128","internalType":"uint128"},{"name":"advanceRateLimits","type":"tuple","internalType":"struct AdvanceRateLimits","components":[{"name":"minAdvanceRate","type":"uint128","internalType":"uint128"},{"name":"maxAdvanceRate","type":"uint128","internalType":"uint128"},{"name":"maxAdvanceRateGlobal","type":"uint128","internalType":"uint128"},{"name":"enforceTotalAmount","type":"bool","internalType":"bool"}]}]},{"name":"trancheId","type":"uint256","internalType":"uint256"},{"name":"indexToRemove","type":"uint256","internalType":"uint256"}],"outputs":[],"stateMutability":"nonpayable"},{"type":"function","name":"repay","inputs":[{"name":"trancheId","type":"uint256","internalType":"uint256"},{"name":"trancheParams","type":"tuple","internalType":"struct TrancheParams","components":[{"name":"ratesOracle","type":"address","internalType":"address"},{"name":"borrower","type":"address","internalType":"address"},{"name":"token","type":"tuple","internalType":"struct Token","components":[{"name":"tokenAddress","type":"address","internalType":"address"},{"name":"tokenDecimals","type":"uint128","internalType":"uint128"}]},{"name":"tranchePermissionsRegistry","type":"address","internalType":"address"},{"name":"isRemoteCommitment","type":"bool","internalType":"bool"},{"name":"isPIK","type":"bool","internalType":"bool"},{"name":"canBeUpdated","type":"bool","internalType":"bool"},{"name":"minimumUtilisation","type":"uint128","internalType":"uint128"},{"name":"advanceRateLimits","type":"tuple","internalType":"struct AdvanceRateLimits","components":[{"name":"minAdvanceRate","type":"uint128","internalType":"uint128"},{"name":"maxAdvanceRate","type":"uint128","internalType":"uint128"},{"name":"maxAdvanceRateGlobal","type":"uint128","internalType":"uint128"},{"name":"enforceTotalAmount","type":"bool","internalType":"bool"}]}]},{"name":"protocolFeesAmount","type":"uint128","internalType":"uint128"},{"name":"defaultedPrincipalAmount","type":"uint128","internalType":"uint128"},{"name":"nonDefaultedPrincipalAmount","type":"uint128","internalType":"uint128"},{"name":"defaultedInterestsAmount","type":"uint128","internalType":"uint128"},{"name":"nonDefaultedInterestsAmount","type":"uint128","internalType":"uint128"},{"name":"defaultedCommitmentFeesAmount","type":"uint128","internalType":"uint128"},{"name":"nonDefaultedCommitmentFeesAmount","type":"uint128","internalType":"uint128"},{"name":"defaultInterestsFromCFsAmount","type":"uint128","internalType":"uint128"},{"name":"defaultInterestsFromInterestsAmount","type":"uint128","internalType":"uint128"},{"name":"capitalizedCommitmentFees","type":"uint128","internalType":"uint128"},{"name":"capitalizedInterests","type":"uint128","internalType":"uint128"}],"outputs":[],"stateMutability":"nonpayable"},{"type":"function","name":"supply","inputs":[{"name":"trancheId","type":"uint256","internalType":"uint256"},{"name":"trancheParams","type":"tuple","internalType":"struct TrancheParams","components":[{"name":"ratesOracle","type":"address","internalType":"address"},{"name":"borrower","type":"address","internalType":"address"},{"name":"token","type":"tuple","internalType":"struct Token","components":[{"name":"tokenAddress","type":"address","internalType":"address"},{"name":"tokenDecimals","type":"uint128","internalType":"uint128"}]},{"name":"tranchePermissionsRegistry","type":"address","internalType":"address"},{"name":"isRemoteCommitment","type":"bool","internalType":"bool"},{"name":"isPIK","type":"bool","internalType":"bool"},{"name":"canBeUpdated","type":"bool","internalType":"bool"},{"name":"minimumUtilisation","type":"uint128","internalType":"uint128"},{"name":"advanceRateLimits","type":"tuple","internalType":"struct AdvanceRateLimits","components":[{"name":"minAdvanceRate","type":"uint128","internalType":"uint128"},{"name":"maxAdvanceRate","type":"uint128","internalType":"uint128"},{"name":"maxAdvanceRateGlobal","type":"uint128","internalType":"uint128"},{"name":"enforceTotalAmount","type":"bool","internalType":"bool"}]}]},{"name":"assets","type":"uint128","internalType":"uint128"}],"outputs":[],"stateMutability":"nonpayable"},{"type":"function","name":"totalDebtPerBorrower","inputs":[{"name":"","type":"address","internalType":"address"},{"name":"","type":"address","internalType":"address"}],"outputs":[{"name":"","type":"uint128","internalType":"uint128"}],"stateMutability":"view"},{"type":"function","name":"trancheLenderPositions","inputs":[{"name":"","type":"uint256","internalType":"uint256"},{"name":"","type":"address","internalType":"address"}],"outputs":[{"name":"deposited","type":"uint128","internalType":"uint128"},{"name":"committed","type":"uint128","internalType":"uint128"},{"name":"interestPerTokenDeposited","type":"uint128","internalType":"uint128"},{"name":"interestEarned","type":"uint128","internalType":"uint128"},{"name":"CFPerTokenDeposited","type":"uint128","internalType":"uint128"},{"name":"CFEarned","type":"uint128","internalType":"uint128"}],"stateMutability":"view"},{"type":"function","name":"tranches","inputs":[{"name":"","type":"uint256","internalType":"uint256"}],"outputs":[{"name":"trancheParamsHash","type":"bytes32","internalType":"bytes32"},{"name":"lastUpdate","type":"uint128","internalType":"uint128"},{"name":"totalBorrowed","type":"uint128","internalType":"uint128"},{"name":"totalDeposited","type":"uint128","internalType":"uint128"},{"name":"totalCommitted","type":"uint128","internalType":"uint128"},{"name":"interestsPerTokenDeposited","type":"uint128","internalType":"uint128"},{"name":"commitmentFeesPerToken","type":"uint128","internalType":"uint128"},{"name":"interestsAvailableToWithdraw","type":"uint128","internalType":"uint128"},{"name":"commitmentFeesAvailableToWithdraw","type":"uint128","internalType":"uint128"},{"name":"capitalizedInterestsAvailableToWithdraw","type":"uint128","internalType":"uint128"},{"name":"capitalizedCommitmentFeesAvailableToWithdraw","type":"uint128","internalType":"uint128"},{"name":"trancheAccruals","type":"tuple","internalType":"struct TrancheAccruals","components":[{"name":"defaultedInterests","type":"uint128","internalType":"uint128"},{"name":"defaultedCommitmentFees","type":"uint128","internalType":"uint128"},{"name":"defaultedPrincipal","type":"uint128","internalType":"uint128"},{"name":"nonDefaultedInterests","type":"uint128","internalType":"uint128"},{"name":"nonDefaultedCommitmentFees","type":"uint128","internalType":"uint128"},{"name":"interestsFromDefaultedCommitmentFees","type":"uint128","internalType":"uint128"},{"name":"interestsFromDefaultedInterests","type":"uint128","internalType":"uint128"},{"name":"capitalizedCommitmentFees","type":"uint128","internalType":"uint128"},{"name":"capitalizedInterests","type":"uint128","internalType":"uint128"},{"name":"protocolFees","type":"uint128","internalType":"uint128"}]},{"name":"repaymentSchedule","type":"tuple","internalType":"struct RepaymentSchedule","components":[{"name":"lastRecurringPaymentDate","type":"uint128","internalType":"uint128"},{"name":"repaymentDaysInMonth","type":"uint128","internalType":"uint128"},{"name":"repaymentPeriodInMonths","type":"uint128","internalType":"uint128"},{"name":"manualRepayments","type":"tuple[]","internalType":"struct ExpectedRepayment[]","components":[{"name":"dueDate","type":"uint128","internalType":"uint128"},{"name":"principalDue","type":"uint128","internalType":"uint128"},{"name":"interestsDue","type":"bool","internalType":"bool"},{"name":"isDefaulted","type":"bool","internalType":"bool"}]}]}],"stateMutability":"view"},{"type":"function","name":"transfer","inputs":[{"name":"trancheId","type":"uint256","internalType":"uint256"},{"name":"trancheParams","type":"tuple","internalType":"struct TrancheParams","components":[{"name":"ratesOracle","type":"address","internalType":"address"},{"name":"borrower","type":"address","internalType":"address"},{"name":"token","type":"tuple","internalType":"struct Token","components":[{"name":"tokenAddress","type":"address","internalType":"address"},{"name":"tokenDecimals","type":"uint128","internalType":"uint128"}]},{"name":"tranchePermissionsRegistry","type":"address","internalType":"address"},{"name":"isRemoteCommitment","type":"bool","internalType":"bool"},{"name":"isPIK","type":"bool","internalType":"bool"},{"name":"canBeUpdated","type":"bool","internalType":"bool"},{"name":"minimumUtilisation","type":"uint128","internalType":"uint128"},{"name":"advanceRateLimits","type":"tuple","internalType":"struct AdvanceRateLimits","components":[{"name":"minAdvanceRate","type":"uint128","internalType":"uint128"},{"name":"maxAdvanceRate","type":"uint128","internalType":"uint128"},{"name":"maxAdvanceRateGlobal","type":"uint128","internalType":"uint128"},{"name":"enforceTotalAmount","type":"bool","internalType":"bool"}]}]},{"name":"deposited","type":"uint128","internalType":"uint128"},{"name":"committed","type":"uint128","internalType":"uint128"},{"name":"interestEarned","type":"uint128","internalType":"uint128"},{"name":"CFEarned","type":"uint128","internalType":"uint128"},{"name":"receiver","type":"address","internalType":"address"}],"outputs":[],"stateMutability":"nonpayable"},{"type":"function","name":"updateTrancheParams","inputs":[{"name":"trancheParams","type":"tuple","internalType":"struct TrancheParams","components":[{"name":"ratesOracle","type":"address","internalType":"address"},{"name":"borrower","type":"address","internalType":"address"},{"name":"token","type":"tuple","internalType":"struct Token","components":[{"name":"tokenAddress","type":"address","internalType":"address"},{"name":"tokenDecimals","type":"uint128","internalType":"uint128"}]},{"name":"tranchePermissionsRegistry","type":"address","internalType":"address"},{"name":"isRemoteCommitment","type":"bool","internalType":"bool"},{"name":"isPIK","type":"bool","internalType":"bool"},{"name":"canBeUpdated","type":"bool","internalType":"bool"},{"name":"minimumUtilisation","type":"uint128","internalType":"uint128"},{"name":"advanceRateLimits","type":"tuple","internalType":"struct AdvanceRateLimits","components":[{"name":"minAdvanceRate","type":"uint128","internalType":"uint128"},{"name":"maxAdvanceRate","type":"uint128","internalType":"uint128"},{"name":"maxAdvanceRateGlobal","type":"uint128","internalType":"uint128"},{"name":"enforceTotalAmount","type":"bool","internalType":"bool"}]}]},{"name":"trancheId","type":"uint256","internalType":"uint256"},{"name":"newTrancheParams","type":"tuple","internalType":"struct TrancheParams","components":[{"name":"ratesOracle","type":"address","internalType":"address"},{"name":"borrower","type":"address","internalType":"address"},{"name":"token","type":"tuple","internalType":"struct Token","components":[{"name":"tokenAddress","type":"address","internalType":"address"},{"name":"tokenDecimals","type":"uint128","internalType":"uint128"}]},{"name":"tranchePermissionsRegistry","type":"address","internalType":"address"},{"name":"isRemoteCommitment","type":"bool","internalType":"bool"},{"name":"isPIK","type":"bool","internalType":"bool"},{"name":"canBeUpdated","type":"bool","internalType":"bool"},{"name":"minimumUtilisation","type":"uint128","internalType":"uint128"},{"name":"advanceRateLimits","type":"tuple","internalType":"struct AdvanceRateLimits","components":[{"name":"minAdvanceRate","type":"uint128","internalType":"uint128"},{"name":"maxAdvanceRate","type":"uint128","internalType":"uint128"},{"name":"maxAdvanceRateGlobal","type":"uint128","internalType":"uint128"},{"name":"enforceTotalAmount","type":"bool","internalType":"bool"}]}]}],"outputs":[],"stateMutability":"nonpayable"},{"type":"function","name":"withdraw","inputs":[{"name":"trancheId","type":"uint256","internalType":"uint256"},{"name":"trancheParams","type":"tuple","internalType":"struct TrancheParams","components":[{"name":"ratesOracle","type":"address","internalType":"address"},{"name":"borrower","type":"address","internalType":"address"},{"name":"token","type":"tuple","internalType":"struct Token","components":[{"name":"tokenAddress","type":"address","internalType":"address"},{"name":"tokenDecimals","type":"uint128","internalType":"uint128"}]},{"name":"tranchePermissionsRegistry","type":"address","internalType":"address"},{"name":"isRemoteCommitment","type":"bool","internalType":"bool"},{"name":"isPIK","type":"bool","internalType":"bool"},{"name":"canBeUpdated","type":"bool","internalType":"bool"},{"name":"minimumUtilisation","type":"uint128","internalType":"uint128"},{"name":"advanceRateLimits","type":"tuple","internalType":"struct AdvanceRateLimits","components":[{"name":"minAdvanceRate","type":"uint128","internalType":"uint128"},{"name":"maxAdvanceRate","type":"uint128","internalType":"uint128"},{"name":"maxAdvanceRateGlobal","type":"uint128","internalType":"uint128"},{"name":"enforceTotalAmount","type":"bool","internalType":"bool"}]}]},{"name":"principalAmount","type":"uint128","internalType":"uint128"},{"name":"interestsAmount","type":"uint128","internalType":"uint128"},{"name":"commitmentFeesAmount","type":"uint128","internalType":"uint128"},{"name":"receiver","type":"address","internalType":"address"}],"outputs":[],"stateMutability":"nonpayable"},{"type":"event","name":"Borrow","inputs":[{"name":"borrower","type":"address","indexed":true,"internalType":"address"},{"name":"trancheId","type":"uint256","indexed":false,"internalType":"uint256"},{"name":"amountBorrowedFromTranche","type":"uint128","indexed":false,"internalType":"uint128"}],"anonymous":false},{"type":"event","name":"DecreaseCommitment","inputs":[{"name":"lender","type":"address","indexed":true,"internalType":"address"},{"name":"trancheId","type":"uint256","indexed":false,"internalType":"uint256"},{"name":"commitmentDecreased","type":"uint128","indexed":false,"internalType":"uint128"}],"anonymous":false},{"type":"event","name":"IncreaseCommitment","inputs":[{"name":"lender","type":"address","indexed":true,"internalType":"address"},{"name":"trancheId","type":"uint256","indexed":false,"internalType":"uint256"},{"name":"newCommitment","type":"uint128","indexed":false,"internalType":"uint128"}],"anonymous":false},{"type":"event","name":"Repay","inputs":[{"name":"borrower","type":"address","indexed":true,"internalType":"address"},{"name":"trancheId","type":"uint256","indexed":false,"internalType":"uint256"},{"name":"protocolFeesAmount","type":"uint128","indexed":false,"internalType":"uint128"},{"name":"defaultedPrincipalAmount","type":"uint128","indexed":false,"internalType":"uint128"},{"name":"nonDefaultedPrincipalAmount","type":"uint128","indexed":false,"internalType":"uint128"},{"name":"defaultedInterestsAmount","type":"uint128","indexed":false,"internalType":"uint128"},{"name":"nonDefaultedInterestsAmount","type":"uint128","indexed":false,"internalType":"uint128"},{"name":"defaultedCommitmentFeesAmount","type":"uint128","indexed":false,"internalType":"uint128"},{"name":"nonDefaultedCommitmentFeesAmount","type":"uint128","indexed":false,"internalType":"uint128"},{"name":"defaultInterestsFromCFsAmount","type":"uint128","indexed":false,"internalType":"uint128"},{"name":"defaultInterestsFromInterestsAmount","type":"uint128","indexed":false,"internalType":"uint128"},{"name":"capitalizedCommitmentFees","type":"uint128","indexed":false,"internalType":"uint128"},{"name":"capitalizedInterests","type":"uint128","indexed":false,"internalType":"uint128"}],"anonymous":false},{"type":"event","name":"Supply","inputs":[{"name":"lender","type":"address","indexed":true,"internalType":"address"},{"name":"trancheId","type":"uint256","indexed":false,"internalType":"uint256"},{"name":"assetsSupplied","type":"uint128","indexed":false,"internalType":"uint128"}],"anonymous":false},{"type":"event","name":"TransferPosition","inputs":[{"name":"sender","type":"address","indexed":true,"internalType":"address"},{"name":"receiver","type":"address","indexed":true,"internalType":"address"},{"name":"trancheId","type":"uint256","indexed":false,"internalType":"uint256"},{"name":"deposited","type":"uint128","indexed":false,"internalType":"uint128"},{"name":"committed","type":"uint128","indexed":false,"internalType":"uint128"},{"name":"interests","type":"uint128","indexed":false,"internalType":"uint128"},{"name":"commitmentFees","type":"uint128","indexed":false,"internalType":"uint128"}],"anonymous":false},{"type":"event","name":"Withdraw","inputs":[{"name":"lender","type":"address","indexed":true,"internalType":"address"},{"name":"trancheId","type":"uint256","indexed":false,"internalType":"uint256"},{"name":"principalAmount","type":"uint128","indexed":false,"internalType":"uint128"},{"name":"interestsAmount","type":"uint128","indexed":false,"internalType":"uint128"},{"name":"commitmentFeesAmount","type":"uint128","indexed":false,"internalType":"uint128"}],"anonymous":false},{"type":"error","name":"SafeERC20FailedOperation","inputs":[{"name":"token","type":"address","internalType":"address"}]}],"bytecode":{"object":"0x6080346200007a57601f62005f4538819003918201601f19168301916001600160401b038311848410176200007e578084926020946040528339810103126200007a57516001600160a01b038116908190036200007a57600480546001600160a01b031916919091179055604051615eb29081620000938239f35b5f80fd5b634e487b7160e01b5f52604160045260245ffdfe610120806040526004361015610013575f80fd5b5f3560e01c908163097f8923146132f0575080631548bc02146132b05780631fa0a3ce14613293578063200634ba1461315057806320992c44146130c057806326c2596214612fe95780632aca80de14612f945780632d02d60014612efa57806334c04b1014612e9e5780633cfa20a114612db45780634857457314612d325780634c6d884914612af157806360d114ca14612ad65780636a69df55146124955780638e27c10514611e5357806392a41c9e14611e2b578063955eae781461145c57806398f436e7146113ba578063b1f70fbc14610d9f578063bfa5512114610c9f578063c649af22146107a2578063c70c7403146105df578063cec66073146103fd578063d280c281146101fd578063efa43ecb146101d55763f24e0a901461013b575f80fd5b346101d1576101c0806003193601126101d1576101cd61018260043561016036613652565b90610169614803565b5061017261484e565b5061017d828261527c565b614886565b6080516040516001600160801b039182168152968796959294909391928391906101b09060208a0190613a61565b1661016087015216610180850152806101a0850152830190613adc565b0390f35b5f80fd5b346101d1575f3660031901126101d1576004546040516001600160a01b039091168152602090f35b346101d157366003190161028081126101d15760c0136101d157604051610223816133b8565b61022b6134bf565b8152610235613464565b60208201526001600160801b039060443582811681036101d157604082015260643582811681036101d157606082015260843582811681036101d157608082015260a43582811681036101d15760a082015260c435916101a03660e31901126101d157604051926102a58461340a565b6001600160a01b0360e43581811681036101d15785526101043581811681036101d15760208601526040366101231901126101d1576040516102e681613426565b6101243582811681036101d15781526101443584811681036101d157602082015260408601526101643590811681036101d15760608501526101843580151581036101d15760808501526101a43580151581036101d15760a08501526101c43580151581036101d15760c08501526101e43582811681036101d15760e08501526080366102031901126101d15760405193610380856133d3565b6102043583811681036101d15785526102243583811681036101d15760208601526102443583811681036101d1576040860152610264359182151583036101d157856103ee93606060409801526101008301526103dd828261527c565b6103e88282876150d8565b9461519d565b81845193168352166020820152f35b346101d15761040b36613798565b610415828461527c565b6104208284336142f5565b825f526020916001835260405f20335f52835260405f20549160018060801b039384841660018060a01b0394856060860151168061051f575b506040949361051d9893886104825f80516020615e3d8339815191529561050d9560801c613db8565b16986104ac8184169a89519061049782613426565b60018252603960f81b858301528c1115613d53565b855f525f82526002885f200191825492826104c986828716613eed565b1660018060801b0319809516179055865f5260018152885f2090335f5252875f20918254916104fa85828516613eed565b1691161790558551918291339583613f06565b0390a20151511630903390613f1f565b005b9792949385604051809a6342da058b60e11b825281806105458887338c60048601613e9a565b03915afa9586156105d457886104825f80516020615e3d8339815191529561050d9561059760409b61051d9f5f916105a7575b508c519061058582613426565b60018252603560f81b88830152613d53565b9550955050509398509394610459565b6105c79150873d89116105cd575b6105bf8183613441565b810190613e82565b5f610578565b503d6105b5565b6040513d5f823e3d90fd5b346101d1576105ed36613798565b6105f7828461527c565b60608201516001600160a01b0316806106f3575b505f83815260016020908152604080832033845282528220545f80516020615e1d833981519152946106dd9493929161067d906001600160801b0390610657908281169060801c613db8565b6040519161066483613426565b60018352603960f81b8684015280881691161015613d53565b60808101516106e2575b50858252600181526040822033835281526106b3604083206106ad85825460801c613db8565b90613eca565b858252526106cf600260405f20016106ad83825460801c613db8565b604051918291339583613f06565b0390a2005b6106ed9087336142f5565b86610687565b9061073392845f52602080936001825260405f20335f52825260405f205460801c9060405180809881946309eaaf5360e41b835288338d60048601613e9a565b03915afa9081156105d45761077c6106dd945f935f80516020615e1d833981519152978591610785575b50603560f81b6040519261077084613426565b60018452830152613d53565b9350509061060b565b61079c9150823d84116105cd576105bf8183613441565b8961075d565b346101d1576102603660031901126101d1576107bd36613652565b6107c561347a565b906107ce613491565b6107d66134a8565b6107de6134d5565b6001600160a01b039361024435939192919085851685036101d1578061080860609260043561527c565b61081581600435336142f5565b61082281600435886142f5565b0184868251169182610b74575b5050506004355f52600160205260405f20335f526020526109e560405f206040519061085a826133b8565b80546001600160801b03808216808552608092831c602086015260018401548083166040870152831c60608601526002909301548082168386015290911c60a0840152906108a9908a90613db8565b16815260208101516001600160801b03906108c79085908316613db8565b16602082015260608101516001600160801b03906108e89086908316613db8565b16606082015260a08101516001600160801b03906109099087908316613db8565b1660a08201526004355f9081526001602090815260408083203384528252909120825181546001600160801b0319166001600160801b0391821690811783559284015192939216916109c3916002906109628582613eca565b60408301516001820180546001600160801b0319166001600160801b039283161781556060850151610995921690613eca565b6080830151910180546001600160801b0319166001600160801b0392831617815560a0909201511690613eca565b604051916109d083613426565b60018352603960f81b60208401521115613d53565b6004355f52600160205260405f208585165f52602052610b1960405f2060405190610a0f826133b8565b80546001600160801b03808216808552608092831c602086015260018401548083166040870152831c60608601526002909301548082168386015290911c60a084015290610a5e908a90613eed565b16815260208101516001600160801b0390610a7c9085908316613eed565b16602082015260608101516001600160801b0390610a9d9086908316613eed565b16606082015260a08101516001600160801b0390610abe9087908316613eed565b1660a08201526004355f908152600160209081526040808320898b1684528252909120825181546001600160801b0319166001600160801b0391821690811783559284015192939216916109c3916002906109628582613eca565b6040805160043581526001600160801b03978816602082015291871690820152908516606082015293166080840152169033907f09a36038b7eb9b9689d660a6e5e93a7c7ac4e6c4ad9d6d07df74695b1d7dda809060a090a3005b610bbb926004355f5260209283916001835260405f208b83165f5283528660405f205460405197889485938493630e9e6e9560e41b855260801c9160043560048601613e9a565b03915afa9081156105d457888391610c35955f94610c80575b50610bf8604051610be481613426565b60018152603560f81b958686830152613d53565b51166004355f526001825260405f20335f52825260405f205460801c9060405180809781946309eaaf5360e41b83528a3360043560048601613e9a565b03915afa9081156105d457610c59935f92610c61575b506040519261077084613426565b86848161082f565b610c79919250833d85116105cd576105bf8183613441565b908a610c4b565b610c98919450833d85116105cd576105bf8183613441565b928c610bd4565b346101d1576020806003193601126101d1576004356001600160401b038082116101d157366023830112156101d15781600401359081116101d157602490600590368382841b860101116101d157610cf681613977565b92610d046040519485613441565b818452610d1082613977565b8487019590601f19013687375f5b838110610d675787868860405192839281840190828552518091526040840192915f5b828110610d5057505050500390f35b835185528695509381019392810192600101610d41565b610d7081614049565b9084811015610d8c57851b82018301355481861b870152610d1e565b83634e487b7160e01b5f5260326004525ffd5b346101d157600319610200368201126101d157610dbb3661350d565b906101a4356001600160801b038116036101d157610dd761347a565b6101e435916001600160401b0383116101d15760809083360301126101d15760405191610e03836133d3565b610e0f816004016134ec565b8352610e1d602482016134ec565b6020840152610e2e604482016134ec565b60408401526064810135906001600160401b0382116101d15701366023820112156101d1576004810135610e6181613977565b91610e6f6040519384613441565b8183526024602084019260071b820101903682116101d157602401915b8183106113585750505060608301526020830151604051610ece916001600160a01b0316610eb982613426565b60018252603560f81b60208301523314613d53565b610ee4610edf620151804204613f84565b615de7565b9260025491825f525f60205260405f205461133f575b6001600160801b03168352606083015151604051610f399350610f349115610f2182613426565b60018252603360f81b6020830152613d53565b615d13565b9160405190610f47826133ee565b5f82525f60208301525f60408301525f60608301525f60808301525f60a08301525f60c08301525f60e08301525f6101008301525f61012083015260405193846101a081011060018060401b036101a08701111761132b576101a08501604052845260018060801b031660208401525f60408401525f60608401525f60808401525f60a08401525f60c08401525f60e08401525f6101008401525f6101208401525f6101408401526101608301526101808201526002545f525f6020526060600d60405f208351815560018060801b0360208501511660018060801b031960018301541617600182015561104a60018060801b0360408601511660018301613eca565b838301516002820180546001600160801b0319166001600160801b03928316178155608086015161107c921690613eca565b60a08401516003820180546001600160801b0319166001600160801b0392831617815560c08601516110af921690613eca565b60e08401516004820180546001600160801b0319166001600160801b039283161781556101008601516110e3921690613eca565b6101208401516005820180546001600160801b0319166001600160801b03928316178155610140860151611118921690613eca565b61016084015180516006830180546001600160801b0319166001600160801b03928316178155602083015161121e939261115492911690613eca565b60408101516007840180546001600160801b0319166001600160801b0392831617815586830151611186921690613eca565b60808101516008840180546001600160801b0319166001600160801b0392831617815560a08301516111b9921690613eca565b60c08101516009840180546001600160801b0319166001600160801b0392831617815560e08301516111ec921690613eca565b610100810151600a840180546001600160801b0319166001600160801b03928316178155610120909201511690613eca565b61018093909301518051600b850180546001600160801b0319166001600160801b039283161781556020830151929592611259921690613eca565b600c810160018060801b0360408601511660018060801b031982541617905501910151805190600160401b821161132b5782548284558083106112cc575b50602001915f5260205f205f925b8284106112ae57005b60026020826112c06001945186613fea565b019201930192906112a5565b6001600160ff1b038181168203611317578316830361131757835f5260205f209060011b8101908360011b015b8181106113065750611297565b5f80825560018201556002016112f9565b634e487b7160e01b5f52601160045260245ffd5b634e487b7160e01b5f52604160045260245ffd5b600183018311611317576001610f399301600255610efa565b6080833603126101d1576020608091604051611373816133d3565b61137c866134ec565b81526113898387016134ec565b8382015261139960408701613500565b604082015260606113ab818801613500565b90820152815201920191610e8c565b346101d15760403660031901126101d1576001600160401b036004358181116101d1576113eb903690600401613cf5565b906024359081116101d157611404903690600401613b6f565b905f5b815181101561051d57806114336114216114579385614057565b5161142c8387614057565b519061527c565b6114526114408285614057565b5161144b8387614057565b519061447b565b614049565b611407565b346101d1576103203660031901126101d15761147736613652565b61147f61347a565b611487613491565b916114906134a8565b926114996134d5565b91610244356001600160801b03811690036101d157610264356001600160801b03811690036101d157610284356001600160801b03811690036101d1576102a4356001600160801b03811690036101d1576102c4356001600160801b03811690036101d1576102e4356001600160801b03811690036101d157610304356001600160801b03811690036101d1576115328160043561527c565b61153e8160043561447b565b602081015160405161155c916001600160a01b0316610eb982613426565b60608101516001600160a01b031680611d32575b506004355f525f602052611589600660405f20016138fb565b6001600160801b038516611ccc575b610284356001600160801b0316611c81575b610264356001600160801b0316611c36575b610244356001600160801b0316611bd3575b6001600160801b038416611b7a575b6102a4356001600160801b0316611b2f575b6102c4356001600160801b0316611acc575b5f906001600160801b038416611a89575b866001600160801b038116611a5c575b506102e4356001600160801b03166119fd575b610304356001600160801b0316611984575b816004355f525f602052600d60405f20015f918154915f925b6001600160801b03841681116118df575b5050505061051d97936117cd6118cf946118d497946116966118cf95600435906152b7565b335f90815260066020908152604080832087820151516001600160a01b0316845290915290208054926001600160801b03906116d490828616613db8565b6001600160801b031994851691161790556004355f90815260208181526040909120825160068201805486166001600160801b0392831617815592840151600a93611723929190911690613eca565b604083015160078201805486166001600160801b03928316178155606085015161174e921690613eca565b608083015160088201805486166001600160801b0392831617815560a0850151611779921690613eca565b60c083015160098201805486166001600160801b0392831617815560e08501516117a4921690613eca565b610100830151910180549093166001600160801b03918216178355610120909101511690613eca565b6040805160043581526001600160801b038a81166020830152858116928201929092528682166060820152888216608082015261024435821660a082015261026435821660c082015261028435821660e08201526102a43582166101008201526102c43582166101208201526102e43582166101408201526103043590911661016082015233907fadff929be4da5956d9b1f637decf991104bff7773194eb2ac85a25c64881658e9061018090a2604060018060a01b039101515116966118cf60018060801b03976118cf61030435976118cf6102e435976118cf6102c435976118cf6102a435976118cf61028435976118cf61026435976102443596613eed565b613eed565b169030903390613f1f565b6118e9848361408c565b505460801c916001600160801b038416831115611958575050946118d497946116966118cf9561194761051d9e9a9661194161192b6117cd986118cf9d613db8565b916004355f525f602052600d60405f200161408c565b50613eca565b955050949783979b50819650611671565b91909392946001810181116113175761197e916001611978920196613db8565b926142dd565b92611660565b6101008101805191926119f7929091906001600160801b03906119ad9061030435908316613db8565b1690526004355f90815260208190526040902060050180546001600160801b036119dc61030435828416613eed565b6001600160801b031990921691161790556103043590613eed565b90611647565b60e0810180519192611a56929091906001600160801b0390611a25906102e435908316613db8565b1690526004355f525f602052611a4c600560405f20016106ad6102e435825460801c613eed565b6102e43590613eed565b90611635565b611a8291926004355f525f6020526118cf600160405f20016106ad84825460801c613db8565b9086611622565b604081018051919250906001600160801b0390611aa99086908316613db8565b1690526001600160801b0383811611611317576001600160801b03831690611612565b60c0810180516001600160801b0390611aeb906102c435908316613db8565b169052600480355f9081526020819052604090200180546001600160801b03611b196102c435828416613eed565b6001600160801b03199092169116179055611601565b60a0810180516001600160801b0390611b4e906102a435908316613db8565b1690526004355f525f602052611b75600460405f20016106ad6102a435825460801c613eed565b6115ef565b80516001600160801b0390611b929086908316613db8565b168152600480355f9081526020819052604090200180546001600160801b03611bbd87828416613eed565b6001600160801b031990921691161790556115dd565b6060810180516001600160801b0390611bf29061024435908316613db8565b169052600480355f9081526020819052604090200180546001600160801b03611c2061024435828416613eed565b6001600160801b031990921691161790556115ce565b6020810180516001600160801b0390611c559061026435908316613db8565b1690526004355f525f602052611c7c600460405f20016106ad61026435825460801c613eed565b6115bc565b6080810180516001600160801b0390611ca09061028435908316613db8565b1690526004355f525f602052611cc7600460405f20016106ad61028435825460801c613eed565b6115aa565b610120810180516001600160801b0390611ce99088908316613db8565b169052604082810151516001600160a01b03165f90815260036020522080546001600160801b03611d1c88828416613eed565b6001600160801b03199092169116179055611598565b604051633738b40360e01b815260048035908201526001600160801b03868116602483015284811660448301528781166064830152858116608483015261024435811660a483015261026435811660c483015261028435811660e48301526102a43581166101048301526102c43581166101248301526102e43581166101448301526103043516610164820152336101848201529060209082906101a49082905afa80156105d457611e06915f91611e0c575b5060405190611df382613426565b60018252603560f81b6020830152613d53565b85611570565b611e25915060203d6020116105cd576105bf8183613441565b87611de5565b346101d1575f3660031901126101d1576005546040516001600160a01b039091168152602090f35b346101d15760e03660031901126101d157611e6c6134bf565b6001600160401b03906024358281116101d157611e8d903690600401613b6f565b611e95613378565b906064358481116101d157611eae903690600401613cf5565b906084359485116101d157366023860112156101d157846004013594611ed386613977565b95611ee16040519788613441565b8087526024602088019160051b830101913683116101d157602401905b82821061247d57505060a4359490506001600160a01b03851685036101d15760c4356001600160a01b03811690036101d1575f958694859290835b865181101561229357611f5a611f4f8289614057565b5161142c8389614057565b6001600160801b03611f6c8286614057565b5161010091166001600160801b0382611f85858b614057565b510151511611159081612258575b50604051611fa081613426565b6002815261064760f31b6020820152611fb891613d53565b611fc28188614057565b51611fcd8288614057565b51611fd79161447b565b6001600160a01b03611fe98288614057565b5160200151163314604051611ffd81613426565b60018152603560f81b602082015261201491613d53565b6001600160a01b036120268288614057565b516060015116600160a01b600190038a161460405161204481613426565b6002815261323360f01b602082015261205c91613d53565b6001600160a01b0361206e8288614057565b51604001515116600160a01b6001900383161460405161208d81613426565b6002815261313760f01b60208201526120a591613d53565b6001600160801b036120b78286614057565b516120cc91166001600160801b038516613f9c565b670de0b6b3a764000090046120e090615de7565b9788956120ed838a614057565b515f908152602081905260409020600101549b6001600160801b036121128589614057565b511661211d91613eed565b9961212791613eed565b9a612132838a614057565b515f90815260208190526040902060020154608091821c919061215f9083906001600160801b0316613db8565b6040519061216c82613426565b6002825261313560f01b602083015261219491906001600160801b038b811691161015613d53565b61219e848b614057565b515f525f6020528760405f20600101918254901c906121bc91613eed565b6121c591613eca565b6121cf838a614057565b515f525f602052600160801b6001900360405f2060070154166121f191613eed565b6121fa91613eed565b946122058288614057565b506122108289614057565b51604051809133936122229183613f06565b037f280a70346123cb37e5001274b7d0c804bd8cd89f4539361a28f115fea0c93d4191a261224f90614049565b98939698611f39565b90506001600160801b0361226c8387614057565b5116906001600160801b0390602090612285858b614057565b51015101511610158b611f93565b335f9081526006602090815260408083206001600160a01b0386168452909152902080548691849189918b918e918e916001600160801b036122d789828416613eed565b6001600160801b031990921691161790556001600160a01b0382166123f8575b5050335f9081526006602090815260408083206001600160a01b03871684529091528120546001600160801b031691905b81518110156123ce578061233f6123c99284614057565b515f525f60205261145261237d610edf600160405f20015460801c8789602060406123718960018060801b0394614057565b51015101511691615bb4565b6001600160801b036040610100612394868b614057565b51015101516040519291166001600160801b0390911611156123b582613426565b6002825261064760f31b6020830152613d53565b612328565b60206001600160801b0387166123f08160c4356001600160a01b038a16613dec565b604051908152f35b60405163717505a960e01b81526001600160801b038781166004830152909116602482015233604482015290602090829060649082906001600160a01b03165afa80156105d457612457915f9161245e575060405190611df382613426565b84806122f7565b612477915060203d6020116105cd576105bf8183613441565b86611de5565b6020809161248a846134ec565b815201910190611efe565b346101d1576102403660031901126101d1576124b036613652565b6124b861347a565b6124c0613491565b906124c96134a8565b91610224356001600160a01b038116908190036101d1576124ec8560043561527c565b60608501516001600160a01b03169081612a35575b5050612937906118cf8561251b61051d97600435336142f5565b6004355f52600160205260405f20335f526020526128c760405f20600260405191612545836133b8565b805460018060801b038116845260801c6020840152600181015460018060801b038116604085015260801c6060840152015460018060801b038116608083015260801c60a08201526004355f525f60205260405f2061263d61260d6125ea6125d06005850154946118cf8660801c9160018060801b03881690600260018060801b0391015416613eed565b6004355f525f602052600160405f20015460801c90613db8565b6004355f908152602081905260409020600701546001600160801b031690613db8565b6040519061261a82613426565b6002825261313560f01b60208301526001600160801b038b811691161015613d53565b6004355f525f60205261268660018060801b03600460405f200154166040519061266682613426565b6002825261313560f01b60208301526001600160801b0389161115613d53565b6004355f525f6020526126ca600460405f20015460801c604051906126aa82613426565b6002825261313560f01b60208301526001600160801b038c161115613d53565b879060a08501516129a5575b506004355f908152602081905260409020600201805490916001600160801b039061270390828416613db8565b6001600160801b03199092169116179055600480355f9081526020819052604090200180546001600160801b0361273c88838316613db8565b169060018060801b0319161790556004355f525f60205261276b600460405f20016106ad8a825460801c613db8565b60a083015115155f60a0604051612781816133b8565b82815282602082015282604082015282606082015282608082015201525f1461294357805161282e906127d8906001600160801b039081168a81188b8210028b1891906127cf908390613db8565b16845289613db8565b60608301516127f19088906001600160801b0316613db8565b808218908211028118906001600160801b036128236128108a85613eed565b60608701516001600160801b0316613db8565b166060850152613db8565b6128776128648a61284b8160018060801b0360a088015116613db8565b6001600160801b03948082189181119190910218613eed565b60a08401516001600160801b0316613db8565b1660a08201525b6004355f9081526001602090815260408083203384528252909120825181546001600160801b0319166001600160801b0391821617825591830151600292610962911682613eca565b6040805160043581526001600160801b03878116602083015285811692820192909252908716606082015233907f8d1c036e081110da20b6d8c98511f4177cfd89eb6bdeade3a0e09f6c8b2dbfca90608090a260400151516001600160a01b0316946001600160801b0394613eed565b16906102243590613dec565b80516001600160801b039061295b9089908316613db8565b16815260608101516001600160801b03906129799087908316613db8565b16606082015260a08101516001600160801b039061299a908a908316613db8565b1660a082015261287e565b612a2f91506129e3898260801c108260801c8b18028a186004355f525f6020526129dd600560405f20016106ad83825460801c613db8565b8a613db8565b6004355f90815260208190526040902060050180546001600160801b0393841680841890841102831893612a1985838316613db8565b6001600160801b03199092169116179055613db8565b8a6126d6565b604051632466622b60e11b815260048035908201523360248201526001600160801b03858116604483015280851660648301528616608482015260a48101919091529190602090839060c49082905afa80156105d45761051d95612aae6118cf92612937955f91612ab8575060405190611df382613426565b9550819250612501565b612ad0915060203d81116105cd576105bf8183613441565b89611de5565b346101d1575f3660031901126101d1576020604051600f8152f35b346101d1576103603660031901126101d157612b0c3661350d565b6101a435906101a0366101c31901126101d157604051612b2b8161340a565b6001600160a01b03916101c43583811681036101d15782526101e4359183831683036101d157602092838201526040610203193601126101d157604051612b7181613426565b6102043585811681036101d15781526001600160801b03946102243586811681036101d15785830152604083019182526102443581811681036101d15760608401526102643580151581036101d15760808401526102843580151581036101d15760a08401526102a43580151581036101d15760c08401526102c43586811681036101d15760e08401526080366102e31901126101d15760405191612c15836133d3565b6102e43587811681036101d15783526103043587811681036101d157868401526103243587811681036101d1576040840152610344359687151588036101d157868181604089612c84612d279b8f5f9f9b6101008e610f349e60608401520152612c7f828261527c565b61447b565b612cd18884830151163314612cb18451612c9d81613426565b60018152603560f81b928388830152613d53565b60c08301511515845191612cc483613426565b6001835286830152613d53565b0195808751511690865151161495612d03604051612cee81613426565b6002815261191b60f11b988985830152613d53565b5101511692510151161460405191612d1a83613426565b6002835286830152613d53565b9282525260405f2055005b346101d15760403660031901126101d157612d4b61338e565b6004355f52600160205260405f209060018060a01b03165f5260205260c060405f20805460026001830154920154906040519260018060801b0391828116855260801c6020850152818116604085015260801c60608401528116608083015260801c60a0820152f35b346101d1576101e03660031901126101d157612dcf3661350d565b6101a4355f6101c43592612de3818461527c565b602090810151604051612e16916001600160a01b03163314612e0482613426565b60018252603560f81b84830152613d53565b828252818152612e6d612e2f85600d604086200161408c565b50548484528383526040808520600101549051916001600160801b03908116911610612e5a82613426565b6002825261189960f11b84830152613d53565b82825252612e8a612e8483600d60405f200161408c565b90613faf565b600182018083116113175761051d92615458565b346101d1575f3660031901126101d157600554612edf604051612ec081613426565b60018152603560f81b6020820152336001600160a01b03841614613d53565b600480546001600160a01b0319908116331790915516600555005b346101d1576102403660031901126101d157612f153661350d565b6101a4356080366101c31901126101d15760405190612f33826133d3565b6001600160801b036101c43581811681036101d15783526101e43590811681036101d15760208301526102043580151581036101d1576040830152610224359283151584036101d15761051d936060840152612f8f818361527c565b6140dd565b346101d15760403660031901126101d157612fad613362565b612fb561338e565b9060018060a01b038091165f52600660205260405f2091165f52602052602060018060801b0360405f205416604051908152f35b346101d15760203660031901126101d1576004355f525f60205260405f2080546101cd60018301546130ae600285015494600381015495600482015493600583015491613044600b61303d600687016138fb565b95016139ce565b95604051998a998a5260018060801b039283851660208c0152608094851c60408c015283811660608c0152841c848b015282811660a08b0152831c60c08a015281811660e08a0152821c61010089015282166101208801521c610140860152610160850190613a61565b6102c0806102a0850152830190613adc565b346101d15760603660031901126101d15761051d6130dc613362565b6130e4613464565b906130ed613378565b9060018060a01b039061310d8260045416331460405190611df382613426565b165f818152600360205260409020805491936001600160801b03929091908361313884828416613db8565b6001600160801b031990921691161790551691613dec565b346101d15761315e36613798565b90613169818461527c565b60608101516001600160a01b0316806131f3575b505f80516020615e5d833981519152918160806106dd9301516131e2575b50835f52600160205260405f20335f526020526131c360405f206106ad83825460801c613eed565b835f525f6020526106cf600260405f20016106ad83825460801c613eed565b6131ed9085336142f5565b8461319b565b9161323391845f52602080946001825260405f20335f52825260405f205460801c906040518080978194630e9e6e9560e41b835288338d60048601613e9a565b03915afa9283156105d4575f80516020615e5d833981519152946106dd9461326e925f916132765750603560f81b6040519261077084613426565b91509161317d565b61328d9150823d84116105cd576105bf8183613441565b8861075d565b346101d1575f3660031901126101d1576020600254604051908152f35b346101d15760203660031901126101d1576001600160a01b036132d1613362565b165f526003602052602060018060801b0360405f205416604051908152f35b346101d15760203660031901126101d157613309613362565b6004546001600160a01b03926133269184163314611df382613426565b1661334c60405161333681613426565b60018152601960f91b6020820152821515613d53565b600580546001600160a01b031916919091179055005b600435906001600160a01b03821682036101d157565b604435906001600160a01b03821682036101d157565b602435906001600160a01b03821682036101d157565b35906001600160a01b03821682036101d157565b60c081019081106001600160401b0382111761132b57604052565b608081019081106001600160401b0382111761132b57604052565b61014081019081106001600160401b0382111761132b57604052565b61012081019081106001600160401b0382111761132b57604052565b604081019081106001600160401b0382111761132b57604052565b601f909101601f19168101906001600160401b0382119082101761132b57604052565b602435906001600160801b03821682036101d157565b6101c435906001600160801b03821682036101d157565b6101e435906001600160801b03821682036101d157565b61020435906001600160801b03821682036101d157565b600435906001600160801b03821682036101d157565b61022435906001600160801b03821682036101d157565b35906001600160801b03821682036101d157565b359081151582036101d157565b906101a06003198301126101d157604080516135288161340a565b9283906001600160a01b039060043582811681036101d157835260243582811681036101d1576020840152836043198201126101d15783519161356a83613426565b60443581811681036101d15783526001600160801b039260643584811681036101d15760208201528585015260843590811681036101d157606084015260a43580151581036101d157608084015260c43580151581036101d15760a084015260e43580151581036101d15760c0840152610104359082821682036101d15760809160e08501526101231901126101d157825192613606846133d3565b6101243582811681036101d15784526101443582811681036101d15760208501526101643591821682036101d157830152610184359081151582036101d1576101009160608401520152565b906101a06023198301126101d1576040805161366d8161340a565b9283906001600160a01b039060243582811681036101d157835260443582811681036101d1576020840152836063198201126101d1578351916136af83613426565b60643581811681036101d15783526001600160801b039260843584811681036101d15760208201528585015260a43590811681036101d157606084015260c43580151581036101d157608084015260e43580151581036101d15760a08401526101043580151581036101d15760c0840152610124359082821682036101d15760809160e08501526101431901126101d15782519261374c846133d3565b6101443582811681036101d15784526101643582811681036101d15760208501526101843591821682036101d1578301526101a4359081151582036101d1576101009160608401520152565b6101e06003198201126101d157600435916101a06023198301126101d15760408051906137c48261340a565b6001600160a01b039360243585811681036101d157835260443585811681036101d1576020840152816063198201126101d15781519461380386613426565b60643581811681036101d15786526001600160801b039560843587811681036101d15760208201528385015260a43590811681036101d157606084015260c43580151581036101d157608084015260e43580151581036101d15760a08401526101043580151581036101d15760c0840152610124359085821682036101d15760809160e08501526101431901126101d1578051906138a0826133d3565b6101443585811681036101d15782526101643585811681036101d1576020830152610184359085821682036101d1578201526101a43580151581036101d1576060820152610100820152916101c43590811681036101d15790565b90604051613908816133ee565b82546001600160801b038082168352608091821c602084015260018501548082166040850152821c6060840152600285015480821683850152821c60a0840152600385015480821660c0850152821c60e08401526004909401549384166101008301529290921c610120830152565b6001600160401b03811161132b5760051b60200190565b9060405161399b816133d3565b606060ff600183958054828060801b038116865260801c602086015201548181161515604085015260081c161515910152565b90604051916139dc836133d3565b8281549160018060801b0390818416835260209360801c8484015260019182820154166040840152600280910190815491613a1683613977565b95613a246040519788613441565b8387525f9182528082208188015b858410613a46575050505050505060600152565b84838892613a538561398e565b815201920193019290613a32565b60018060801b038082511683528060208301511660208401528060408301511660408401528060608301511660608401528060808301511660808401528060a08301511660a08401528060c08301511660c08401528060e08301511660e0840152610100818184015116908401526101208092015116910152565b60808083019060018060801b039283815116855260209184838301511683870152604091858382015116838801528360a06060809301519884848201528951809852019701955f935b868510613b3757505050505050505090565b8751805183168a528087015183168a8801528082015115158a8301528301511515898401529783019796850196600190940193613b25565b81601f820112156101d157803590613b8682613977565b92604090613b9682519586613441565b83855260209182860191836101a0809702860101948186116101d1578401925b858410613bc7575050505050505090565b8382038781126101d157835191613bdd8361340a565b613be6866133a4565b8352613bf38787016133a4565b8784015284603f198301126101d157845192613c0e84613426565b613c198688016133a4565b8452606093613c298589016134ec565b89820152868201526080613c3e8189016133a4565b8583015260a093613c50858a01613500565b8284015260c094613c62868b01613500565b9084015260e094613c74868b01613500565b9084015261010094613c87868b016134ec565b9084015261011f1901126101d15789938893875191613ca5836133d3565b613cb26101208b016134ec565b8352613cc16101408b016134ec565b86840152613cd26101608b016134ec565b89840152613ce36101808b01613500565b90830152820152815201930192613bb6565b81601f820112156101d157803591613d0c83613977565b92613d1a6040519485613441565b808452602092838086019260051b8201019283116101d1578301905b828210613d44575050505090565b81358152908301908301613d36565b15613d5b5750565b6040519062461bcd60e51b82528160208060048301528251908160248401525f935b828510613d9f575050604492505f838284010152601f80199101168101030190fd5b8481018201518686016044015293810193859350613d7d565b6001600160801b03918216908216039190821161131757565b6001600160a01b039091168152602081019190915260400190565b613e21613e269392613e1360405194859263a9059cbb60e01b602085015260248401613dd1565b03601f198101845283613441565b613e28565b565b905f602091828151910182855af1156105d4575f513d613e7957506001600160a01b0381163b155b613e575750565b604051635274afe760e01b81526001600160a01b039091166004820152602490fd5b60011415613e50565b908160209103126101d1575180151581036101d15790565b9081526001600160a01b0390911660208201526001600160801b0391821660408201529116606082015260800190565b80546001600160801b031660809290921b6001600160801b031916919091179055565b6001600160801b03918216908216019190821161131757565b9081526001600160801b03909116602082015260400190565b6040516323b872dd60e01b60208201526001600160a01b03928316602482015292909116604483015260648083019390935291815260a08101918183106001600160401b0384111761132b57613e2692604052613e28565b9190820180921161131757565b90620151809182810292818404149015171561131757565b8181029291811591840414171561131757565b90613fbf576001815f8093550155565b634e487b7160e01b5f525f60045260245ffd5b9061ff00825491151560081b169061ff001916179055565b815181546001600160801b0319166001600160801b039182161782556020830151613e269392606092600192614021911682613eca565b019161403f60408201511515849060ff801983541691151516179055565b0151151590613fd2565b5f1981146113175760010190565b805182101561406b5760209160051b010190565b634e487b7160e01b5f52603260045260245ffd5b9190820391821161131757565b805482101561406b575f5260205f209060011b01905f90565b9190613fbf57613e2691613fea565b80549190600160401b83101561132b57826140d7916001613e269501815561408c565b906140a5565b9291906020938460018060a01b0391015116331461410360409182519061058582613426565b60018060801b039182614120610edf620151808388511604613f84565b16908185526141595f928284528389528560018686200154161084519061414682613426565b6002825261189960f11b8a830152613d53565b808252818752600d9384848420019081549182159081156142a3575b5061427e578360608651614188816133d3565b828152828c82015282888201520152835b8281106141f9575050600181018091116141e5579682916141db613e269899600f8751916141c683613426565b6002835261323760f01b868401521115613d53565b82525220016140b4565b634e487b7160e01b83526011600452602483fd5b838552848a5261421661421082898989200161408c565b5061398e565b82815116838a5116146142635782815116838a511610614240575b5061423b90614049565b614199565b61425c61423b9299868852878d526140d78b8b8b8b200161408c565b9790614231565b50928452505095819052209293613e26936140d7920161408c565b50600181018091116141e5579682916141db613e269899600f8751916141c683613426565b5f19840191508382116142c95782916142bb9161408c565b50541681885116115f614175565b634e487b7160e01b86526011600452602486fd5b6001600160801b039081169081146113175760010190565b919091614302828461447b565b6001600160a01b038116156144765782613e26935f52600160205260405f2060018060a01b0383165f5260205260405f2092600260405194614343866133b8565b80546001600160801b038082168852608091821c6020890152600183015480821660408a0152821c6060890152929091015480831687830152901c60a086015261438e8284876150d8565b1660608501526001600160801b03906143a890838661519d565b1660a08401525f81815260208181526040808320600301546001600160801b0380821683890152608091821c91880191909152938352600182528083206001600160a01b03959095168352938152929020835181549083166001600160801b031991821617825592840151929392600292614424911682613eca565b604083015160018201805486166001600160801b03928316178155606085015161444f921690613eca565b6080830151910180549093166001600160801b0391821617835560a0909101511690613eca565b505050565b9190916144888382614886565b9195608093919351925f928684526020918483526040958686209860018060801b03998a80600183015416931692831461478b5760066144c891016138fb565b9b899c8b899b16806146f9575b508b809d9e60808a9e9d9e01516146e1575b1680614655575b50908a94939291858b8089019d8e51169201511603614630575b508752868552878720936006850199848251169a600160801b60019003199b8c82541617815585888401511661453d91613eca565b84600787019151168b8254161781558460608301511661455c91613eca565b60088501846080830151168b8254161781558460a08301511661457e91613eca565b600985018460c0830151168b8254161781558460e0830151166145a091613eca565b83600a86019181610100820151168c8454161783556101200151166145c491613eca565b600184019089825416179055511690600b0190868254161790558686166145ef575b50505050505050565b60018060a01b03808284015116845260068252848085209301515116835252209261461e845493828516613eed565b1691161790555f8080808080806145e6565b61464f9061463e838661479a565b828a5289885260018b8b2001613eca565b5f614508565b819c6146d0836146bd8f99989796958f8f8f918f93918f8f610edf6106ad966146d69d838a886146ab9661469e60039c6146986146928d9c615cdf565b91615cdf565b90613db8565b1694015101511691615bb4565b958d825252200191825460801c613eed565b8860e081818d0151169201511690613db8565b90613eed565b9b90919293946144ee565b50508289528887528a60028b8b20015460801c6144e7565b8c9e9b50610edf8961471e928f8b8f8261469e6147158f615cad565b6146988b615cad565b838a5289885260038b8b2001908d61473a835492828416613eed565b6001600160801b0319909216911617905561010086810151908201518d91614766918316908316613db8565b169d8e1161477757999c998b6144d5565b634e487b7160e01b89526011600452602489fd5b50505050505050505050509050565b905f90815b60608085015180518310156147fb57826147b891614057565b5101516147c55750505050565b6147f6908284528360205260016147e282600d604088200161408c565b5001805461ff001916610100179055614049565b61479f565b505050505050565b60405190614810826133ee565b816101205f918281528260208201528260408201528260608201528260808201528260a08201528260c08201528260e0820152826101008201520152565b6040519061485b826133d3565b606080835f81525f60208201525f60408201520152565b51906001600160801b03821682036101d157565b60e0525f608052614895614803565b5061489e61484e565b5060e0515f908152602081905260409020600101546001600160801b0316906148ce610edf620151804204613f84565b60805260e0515f525f60205260405f20600181015460801c91614900600660018060801b0360028501541693016138fb565b9360e0515f525f602052614919600b60405f20016139ce565b6080519091906001600160801b038116821461501f5761493a90828461555c565b909161494588615c62565b60e0868101516001600160801b0390811661010081815260808a015160408e0151918e0151948e01516149889593949081169381169216908d908d90151561502b565b92906149d0818560808b015115159060e0515f525f602052600260405f20015460018060801b03811692615012575b506149c29192613eed565b808210828218021890613db8565b9160a0600180821b038a51166040518060c05263e44d079760e01b905260c0519081614a0260e0513060048401613dd1565b039060c051905afa8060a052156105d4575f9c60a051614f57575b959391908c6101208f670de0b6b3a76400008f614a8f92614a7a614a89929a9e9c9a614a62614a4e8a608051613db8565b9160018060801b0360408b01511690613eed565b6080909301516001600160801b039182169116613f9c565b906001600160801b0316613f9c565b04615de7565b9101805190916001600160801b0391614aaa91908316613eed565b1690525b6080516001600160801b038082169083161015614f4257918d9493918f9388811090891802881890614adf91613db8565b83516020850151604086015192966001600160801b039384169492841693909291614b0e91808a169116613f9c565b614b20916001600160801b0316613f9c565b670de0b6b3a76400009004614b3490615de7565b60608801516001600160801b0391614b4d918316613eed565b1660608801526001600160801b0391614b699087841690613f9c565b614b7b916001600160801b0316613f9c565b670de0b6b3a76400009004614b8f90615de7565b6060870151614ba791906001600160801b0316613eed565b166060860152614bc1906001600160801b03851690613f9c565b614bd4906001600160801b038a16613f9c565b670de0b6b3a76400009004614be890615de7565b60808501516001600160801b0391614c01918316613eed565b1660808501526001600160801b0316614e64575b50506080516001600160801b0390811690841611159050614cc3575b6080516001600160801b0391821691838218918411919091028318168114614cbb575b50614c6381608051908661555c565b929093614c6f8a615c62565b608088015160408c0151610100808e0151905160e08f0151949694614cad9491936001600160801b03918216938216929116908f908f90151561502b565b929691959194919391614aae565b84525f614c54565b614cd1826060870151615aec565b906001600160801b038216614e13575b6001600160801b03919091168015159190614dec575b508015614dcb575b15614c315760a086015115614d715760608901516101008a01516001600160801b0391614d3191908316908316613eed565b166101008a0152608089015160e08a01516001600160801b0391614d5a91908316908316613eed565b1660e08a01525f60808a01525f60608a0152614c31565b606089015189516001600160801b0391614d9091908316908316613eed565b1689525f60608a0152608089015160208a01805190916001600160801b0391614dbd918316908316613eed565b1690525f60808a0152614c31565b506080518281189083110282186001600160801b0390811690821614614cff565b606087015160409250614e08916001600160801b031690614057565b51015115155f614cf7565b9881614e5e9160016060614e338e828d015190848060801b031690614057565b5101526040808e01518e91906001600160801b0390614e559086908316613eed565b16910152613db8565b98614ce1565b60600151602083015160a084018051614f3793614ecf93670de0b6b3a764000093614a89936001600160801b03938416939192614ea5918316908316613eed565b6001600160801b0391614edf91614ecf918891614a899116614ec98d871689615c24565b90613f9c565b83516001600160801b0316613eed565b16905286516040880151614ec99160c091614f06916001600160801b039182169116613eed565b9801805190986001600160801b0391614f229190831690613eed565b6001600160801b039891169290881690615c24565b169052885f8b614c15565b50505050505050939592505092945093929190565b9a9c5060a09a3d60a01161500a575b614f728c60c051613441565b60a060c051809d810103126101d1576040519b6001600160401b0360a08e01908111908e111761132b5760a08d016040528e9c8e91614fb090614872565b815260c051602001614fc190614872565b602082015260c051604001614fd590614872565b604082015260c051606001614fe990614872565b606082015260c051608001614ffd90614872565b60808201529e5050614a1d565b3d9b50614f66565b60801c91506149c26149b7565b50949593945091929050565b9591949293919291906001600160801b0390818116156150ca575f97156150ae576118cf97509061507b846118cf856118cf8a6150728161506d8f809b613db8565b613db8565b9d8e9d8e613eed565b905b8581169116101561509b575050506150989261506d91613db8565b91565b9091935061509894506118cf9250613eed565b509486956150c4846118cf856118cf8a87613eed565b9061507d565b50505050505050505f905f90565b610edf916060670de0b6b3a764000061515d615168966150f88186614886565b5050509060405f878152806020526151146006838320016138fb565b97815280602052209160018060801b0380978160028160038801541696015416928361516b575b50508092506151569150885116928260408a01511690613db8565b1690613f9c565b049201511690613f77565b90565b928260206040610edf9561469e6151939a999661469861518d6146d09b615cad565b91615cad565b5f8086818061513b565b604060a0670de0b6b3a764000061515d610edf95615168976151bf8183614886565b5050505f91838352826020526151d96006898520016138fb565b9160018060801b03988994858c5116968152806020522092600284015493858516948c6080860151615268575b505091856152349492816003819896015460801c9516928361523c575b505091505060808b01511690613db8565b169116613f9c565b928260206040610edf9561469e61525e9a99966146986146926146d09b615cdf565b5f80848180615223565b602001518716975060801c9450858c615206565b90613e26915f525f60205261529560405f205491615d13565b14604051906152a382613426565b60028252610c4d60f21b6020830152613d53565b91908215615453575f805b8282526020828152600d604093806152df8984888420015461407f565b9061543f578410156153bd57508261532291865f525f845280865f2001956153078a84613f77565b966153145f98899261408c565b50958982525286200161408c565b9190916153a957908161533e93928203615343575b5050614049565b6152c2565b805482546001600160801b0319166001600160801b039190911617825580546153a292906153749060801c82613eca565b6001809101910160ff9061539782825416849060ff801983541691151516179055565b5460081c1690613fd2565b5f80615337565b634e487b7160e01b84526004849052602484fd5b96935050505091909183805b61542b578181101561542457835f525f602052600d60405f200190815490811561541057869261540a925f190190615404612e84838361408c565b55614049565b906153c9565b634e487b7160e01b5f52603160045260245ffd5b5050915050565b634e487b7160e01b85526011600452602485fd5b634e487b7160e01b82526011600452602482fd5b509050565b92919091821561555657835b5f8381526020818152600d6040615489896154848a85858920015461407f565b613f77565b851015615502576154cd918591856154bf8b6154b98e8d8552848a526154b487878720019389613f77565b61407f565b9061408c565b50958a82525285200161408c565b9290926154ee575090816154e993928203615343575050614049565b615464565b634e487b7160e01b81526004819052602490fd5b50505050509091925f905b615517818661407f565b82101561542457835f525f602052600d60405f2001918254908115615410576155179361554f925f190190615404612e84838361408c565b915061550d565b92505050565b602081015190926001600160801b03929091831680615592575b5060606155869394015190615a06565b50808210828218021891565b620151808486959395511692604087015116920462010bd9908181019182125f8212908015821691151617611317576226496501905f62253d8c83129112908015821691151617611317578060021b6004810582036113175762023ab18091059182820291820583036113175760038201915f6003841291129080158216911516176113175760046156259205906159ee565b9060018201600181125f841290801582169115161761131757610fa090808202918205036113175762164b096156699105926004615662856159ca565b05906159ee565b93601f8501945f601f8712911290801582169115161761131757846050026050810586036113175761098f8091059586820291820587036113175760506156b19205906159ee565b92600b86059560028101905f6002831291129080158216911516176113175786600c02600c81058803611317576156e7916159ee565b95603019840193841360011661131757836064029360648505036113175761571561571a92615723956159af565b6159af565b92508394613f77565b925f19918285019485116113175761573f90600c860490613f77565b92600c8506600181011061131757600180600c87060114801561599f575b801561598f575b801561597f575b801561596f575b801561595f575b8015615950575b156158f457601f80915b116158ec575b506107b283106101d15780617d4a19810113600116611317576112c090818085011280155f861216905f86121516176113175760046157ed6157e86157f994600c6157df6001828c06016159dc565b059088016159af565b6159ca565b0590617d4a19016159af565b90600c8406016001600c850601811360011661131757600c61581f6001828706016159dc565b05600c810290808205600c14901517156113175761583c916159ee565b9061016f918083029283050361131757600c6158599205906159af565b91611324918281019283125f811581841216921215161761131757606491600c61588a6001826158919506016159dc565b05906159af565b0590816003029160038305036113175760046158ae9205906159ee565b9162253d8b19830192831360011661131757620151808302928084046201518014901517156113175760606158e561558694615de7565b9350615576565b90505f615790565b600c850660010160021461590b57601e809161578a565b600384161580615944575b8015615938575b1561592f5760ff601d5b16809161578a565b60ff601c615927565b5061019084061561591d565b50606484061515615916565b50600c60018187060114615780565b50600a6001600c87060114615779565b5060086001600c87060114615772565b5060076001600c8706011461576b565b5060056001600c87060114615764565b5060036001600c8706011461575d565b9190915f838201938412911290801582169115161761131757565b906105b5918083029283050361131757565b90600d19820191821360011661131757565b81810392915f13801582851316918412161761131757565b929190805115615adb575f5b8151811015615ac9576001600160801b0380615a2e8385614057565b51511681851680911180615ab3575b615aa95781615a4c8486614057565b515116111580615a91575b80615a87575b615a705750615a6b90614049565b615a12565b92509350615a7f848392614057565b515116921690565b5080821115615a5d565b5080615a9d8385614057565b51511681871610615a57565b5094505050508190565b506060615ac08486614057565b51015115615a3d565b506001600160801b0393508392915050565b506001600160801b03925082919050565b805115615b97575f5b81516001600160801b039082821690811015615b845781615b168286614057565b5151169082861680921480615b6e575b615b5557615b35839186614057565b51511611615b4c5750615b47906142dd565b615af5565b92505050905f90565b9050602092959450615b679193614057565b5101511690565b506060615b7b8287614057565b51015115615b26565b506001600160801b03945f945092505050565b506001600160801b03915f9150565b604d811161131757600a0a90565b909160128110615bf8575b50670de0b6b3a764000090818102918183041490151715611317578115615be4570490565b634e487b7160e01b5f52601260045260245ffd5b601203916012831161131757614ec9615c17615c1d93614ec986615ba6565b93615ba6565b905f615bbf565b61516891615c3191613f9c565b615484671bc16d674ec80000615c478380613f9c565b046729a2241af62c0000615c5b8483613f9c565b0492613f77565b6151689060018060801b0360c0615ca3615c96615c89848651168560208801511690613eed565b8460408701511690613eed565b8360a08601511690613eed565b9201511690613eed565b6151689060018060801b0360c0615ca3615cd1836060860151168486511690613eed565b836101008601511690613eed565b6151689060018060801b0360a0615ca3615d06836080860151168460208701511690613eed565b8360e08601511690613eed565b604051606060208083019360018060a01b0380825116865280838301511660408601526040820151818151168587015260018060801b039384910151166080860152838201511660a08501526080810151151560c085015260a0810151151560e085015260c081015115159061010091828601528260e0820151166101208601520151908082511661014085015280602083015116610160850152604082015116610180840152015115156101a0908183015281526101c0810181811060018060401b0382111761132b5760405251902090565b60405190615df482613426565b60018252603760f81b60208301526001600160801b0391615e189083831115613d53565b169056fe028566e96badf63ba72be19e6b8d700261dd10af32c2d14fc2f89ccc178b4f002ec64320700539f37b098c032e9027a1c6b04c368d909aeea00c7ea7c79edba44a82d079213aefc1e90d1ad0a89d1fca9a8ad682a06c5107cd4d51bc60d362c7a2646970667358221220c99f38383c09c8cc19c565822f95a4946d1b0559096c2790d710d157a49bf68264736f6c63430008140033","linkReferences":{}},"methodIdentifiers":{"MAX_PAYMENTS_ARRAY_SIZE()":"60d114ca","acceptProtocolFeesAddress()":"34c04b10","accrueTrancheInterestAndCommitmentFees(uint256,(address,address,(address,uint128),address,bool,bool,bool,uint128,(uint128,uint128,uint128,bool)))":"f24e0a90","accrueTranches(uint256[],(address,address,(address,uint128),address,bool,bool,bool,uint128,(uint128,uint128,uint128,bool))[])":"98f436e7","addNewTranche((address,address,(address,uint128),address,bool,bool,bool,uint128,(uint128,uint128,uint128,bool)),uint128,uint128,(uint128,uint128,uint128,(uint128,uint128,bool,bool)[]))":"b1f70fbc","addOrUpdateExpectedRepayment((address,address,(address,uint128),address,bool,bool,bool,uint128,(uint128,uint128,uint128,bool)),uint256,(uint128,uint128,bool,bool))":"2d02d600","borrow(uint128,(address,address,(address,uint128),address,bool,bool,bool,uint128,(uint128,uint128,uint128,bool))[],address,uint256[],uint128[],address,address)":"8e27c105","claimProtocolFees(address,uint128,address)":"20992c44","decreaseCommitment(uint256,(address,address,(address,uint128),address,bool,bool,bool,uint128,(uint128,uint128,uint128,bool)),uint128)":"c70c7403","externalSLOADs(bytes32[])":"bfa55121","increaseCommitment(uint256,(address,address,(address,uint128),address,bool,bool,bool,uint128,(uint128,uint128,uint128,bool)),uint128)":"200634ba","lenderPositionEarnedInterestsAndCommitmentFees((uint128,uint128,uint128,uint128,uint128,uint128),uint256,(address,address,(address,uint128),address,bool,bool,bool,uint128,(uint128,uint128,uint128,bool)))":"d280c281","nTranches()":"1fa0a3ce","proposeNewProtocolFeesAddress(address)":"097f8923","proposedProtocolFeesClaimer()":"92a41c9e","protocolFeesAvailableToWithdraw(address)":"1548bc02","protocolFeesClaimer()":"efa43ecb","removeExpectedPayment((address,address,(address,uint128),address,bool,bool,bool,uint128,(uint128,uint128,uint128,bool)),uint256,uint256)":"3cfa20a1","repay(uint256,(address,address,(address,uint128),address,bool,bool,bool,uint128,(uint128,uint128,uint128,bool)),uint128,uint128,uint128,uint128,uint128,uint128,uint128,uint128,uint128,uint128,uint128)":"955eae78","supply(uint256,(address,address,(address,uint128),address,bool,bool,bool,uint128,(uint128,uint128,uint128,bool)),uint128)":"cec66073","totalDebtPerBorrower(address,address)":"2aca80de","trancheLenderPositions(uint256,address)":"48574573","tranches(uint256)":"26c25962","transfer(uint256,(address,address,(address,uint128),address,bool,bool,bool,uint128,(uint128,uint128,uint128,bool)),uint128,uint128,uint128,uint128,address)":"c649af22","updateTrancheParams((address,address,(address,uint128),address,bool,bool,bool,uint128,(uint128,uint128,uint128,bool)),uint256,(address,address,(address,uint128),address,bool,bool,bool,uint128,(uint128,uint128,uint128,bool)))":"4c6d8849","withdraw(uint256,(address,address,(address,uint128),address,bool,bool,bool,uint128,(uint128,uint128,uint128,bool)),uint128,uint128,uint128,address)":"6a69df55"},"id":33}